{
  "_format": "hh-sol-artifact-1",
  "contractName": "ConsensusMock",
  "sourceName": "contracts/test/ConsensusMock.sol",
  "abi": [
    {
      "constant": true,
      "inputs": [],
      "name": "getLastSnapshotTakenAtBlock",
      "outputs": [
        {
          "name": "",
          "type": "uint256"
        }
      ],
      "payable": false,
      "stateMutability": "view",
      "type": "function"
    },
    {
      "constant": true,
      "inputs": [],
      "name": "jailedValidatorsLength",
      "outputs": [
        {
          "name": "",
          "type": "uint256"
        }
      ],
      "payable": false,
      "stateMutability": "view",
      "type": "function"
    },
    {
      "constant": true,
      "inputs": [
        {
          "name": "_p",
          "type": "uint256"
        }
      ],
      "name": "pendingValidatorsAtPosition",
      "outputs": [
        {
          "name": "",
          "type": "address"
        }
      ],
      "payable": false,
      "stateMutability": "view",
      "type": "function"
    },
    {
      "constant": true,
      "inputs": [
        {
          "name": "_snapshotId",
          "type": "uint256"
        }
      ],
      "name": "getSnapshotAddresses",
      "outputs": [
        {
          "name": "",
          "type": "address[]"
        }
      ],
      "payable": false,
      "stateMutability": "view",
      "type": "function"
    },
    {
      "constant": false,
      "inputs": [
        {
          "name": "_newAddress",
          "type": "address"
        }
      ],
      "name": "setProxyStorage",
      "outputs": [],
      "payable": false,
      "stateMutability": "nonpayable",
      "type": "function"
    },
    {
      "constant": true,
      "inputs": [],
      "name": "getMinValidatorFee",
      "outputs": [
        {
          "name": "",
          "type": "uint256"
        }
      ],
      "payable": false,
      "stateMutability": "pure",
      "type": "function"
    },
    {
      "constant": true,
      "inputs": [
        {
          "name": "_address",
          "type": "address"
        }
      ],
      "name": "isJailed",
      "outputs": [
        {
          "name": "",
          "type": "bool"
        }
      ],
      "payable": false,
      "stateMutability": "view",
      "type": "function"
    },
    {
      "constant": true,
      "inputs": [],
      "name": "hasCycleEnded",
      "outputs": [
        {
          "name": "",
          "type": "bool"
        }
      ],
      "payable": false,
      "stateMutability": "view",
      "type": "function"
    },
    {
      "constant": true,
      "inputs": [
        {
          "name": "_address",
          "type": "address"
        },
        {
          "name": "_validator",
          "type": "address"
        }
      ],
      "name": "delegatedAmount",
      "outputs": [
        {
          "name": "",
          "type": "uint256"
        }
      ],
      "payable": false,
      "stateMutability": "view",
      "type": "function"
    },
    {
      "constant": true,
      "inputs": [],
      "name": "SNAPSHOTS_PER_CYCLE",
      "outputs": [
        {
          "name": "",
          "type": "uint256"
        }
      ],
      "payable": false,
      "stateMutability": "view",
      "type": "function"
    },
    {
      "constant": true,
      "inputs": [],
      "name": "pendingValidatorsLength",
      "outputs": [
        {
          "name": "",
          "type": "uint256"
        }
      ],
      "payable": false,
      "stateMutability": "view",
      "type": "function"
    },
    {
      "constant": true,
      "inputs": [],
      "name": "newValidatorSetLength",
      "outputs": [
        {
          "name": "",
          "type": "uint256"
        }
      ],
      "payable": false,
      "stateMutability": "view",
      "type": "function"
    },
    {
      "constant": false,
      "inputs": [
        {
          "name": "_currentValidatorsLengthMock",
          "type": "uint256"
        }
      ],
      "name": "setCurrentValidatorsLengthMock",
      "outputs": [],
      "payable": false,
      "stateMutability": "nonpayable",
      "type": "function"
    },
    {
      "constant": true,
      "inputs": [],
      "name": "DECIMALS",
      "outputs": [
        {
          "name": "",
          "type": "uint256"
        }
      ],
      "payable": false,
      "stateMutability": "view",
      "type": "function"
    },
    {
      "constant": false,
      "inputs": [
        {
          "name": "_amount",
          "type": "uint256"
        }
      ],
      "name": "withdraw",
      "outputs": [],
      "payable": false,
      "stateMutability": "nonpayable",
      "type": "function"
    },
    {
      "constant": true,
      "inputs": [],
      "name": "isInitialized",
      "outputs": [
        {
          "name": "",
          "type": "bool"
        }
      ],
      "payable": false,
      "stateMutability": "view",
      "type": "function"
    },
    {
      "constant": false,
      "inputs": [],
      "name": "stake",
      "outputs": [],
      "payable": true,
      "stateMutability": "payable",
      "type": "function"
    },
    {
      "constant": true,
      "inputs": [],
      "name": "currentValidatorsLength",
      "outputs": [
        {
          "name": "",
          "type": "uint256"
        }
      ],
      "payable": false,
      "stateMutability": "view",
      "type": "function"
    },
    {
      "constant": false,
      "inputs": [
        {
          "name": "_val",
          "type": "address"
        },
        {
          "name": "counter",
          "type": "uint256"
        }
      ],
      "name": "setBlockCounterMock",
      "outputs": [],
      "payable": false,
      "stateMutability": "nonpayable",
      "type": "function"
    },
    {
      "constant": false,
      "inputs": [
        {
          "name": "_status",
          "type": "bool"
        }
      ],
      "name": "setShouldEmitInitiateChangeMock",
      "outputs": [],
      "payable": false,
      "stateMutability": "nonpayable",
      "type": "function"
    },
    {
      "constant": false,
      "inputs": [
        {
          "name": "_amount",
          "type": "uint256"
        }
      ],
      "name": "setValidatorFee",
      "outputs": [],
      "payable": false,
      "stateMutability": "nonpayable",
      "type": "function"
    },
    {
      "constant": true,
      "inputs": [],
      "name": "getMinStake",
      "outputs": [
        {
          "name": "",
          "type": "uint256"
        }
      ],
      "payable": false,
      "stateMutability": "pure",
      "type": "function"
    },
    {
      "constant": true,
      "inputs": [
        {
          "name": "_p",
          "type": "uint256"
        }
      ],
      "name": "currentValidatorsAtPosition",
      "outputs": [
        {
          "name": "",
          "type": "address"
        }
      ],
      "payable": false,
      "stateMutability": "view",
      "type": "function"
    },
    {
      "constant": false,
      "inputs": [
        {
          "name": "_validator",
          "type": "address"
        }
      ],
      "name": "delegate",
      "outputs": [],
      "payable": true,
      "stateMutability": "payable",
      "type": "function"
    },
    {
      "constant": true,
      "inputs": [],
      "name": "newValidatorSet",
      "outputs": [
        {
          "name": "",
          "type": "address[]"
        }
      ],
      "payable": false,
      "stateMutability": "view",
      "type": "function"
    },
    {
      "constant": true,
      "inputs": [],
      "name": "jailedValidators",
      "outputs": [
        {
          "name": "",
          "type": "address[]"
        }
      ],
      "payable": false,
      "stateMutability": "view",
      "type": "function"
    },
    {
      "constant": true,
      "inputs": [
        {
          "name": "_from",
          "type": "uint256"
        },
        {
          "name": "_to",
          "type": "uint256"
        }
      ],
      "name": "getRandom",
      "outputs": [
        {
          "name": "",
          "type": "uint256"
        }
      ],
      "payable": false,
      "stateMutability": "view",
      "type": "function"
    },
    {
      "constant": true,
      "inputs": [
        {
          "name": "_validator",
          "type": "address"
        },
        {
          "name": "_rewardAmount",
          "type": "uint256"
        }
      ],
      "name": "getDelegatorsForRewardDistribution",
      "outputs": [
        {
          "name": "",
          "type": "address[]"
        },
        {
          "name": "",
          "type": "uint256[]"
        }
      ],
      "payable": false,
      "stateMutability": "view",
      "type": "function"
    },
    {
      "constant": true,
      "inputs": [],
      "name": "STRIKE_RESET",
      "outputs": [
        {
          "name": "",
          "type": "uint256"
        }
      ],
      "payable": false,
      "stateMutability": "view",
      "type": "function"
    },
    {
      "constant": false,
      "inputs": [],
      "name": "maintenance",
      "outputs": [],
      "payable": false,
      "stateMutability": "nonpayable",
      "type": "function"
    },
    {
      "constant": false,
      "inputs": [
        {
          "name": "_amount",
          "type": "uint256"
        }
      ],
      "name": "setValidatorFeeMock",
      "outputs": [],
      "payable": false,
      "stateMutability": "nonpayable",
      "type": "function"
    },
    {
      "constant": false,
      "inputs": [],
      "name": "unJail",
      "outputs": [],
      "payable": false,
      "stateMutability": "nonpayable",
      "type": "function"
    },
    {
      "constant": true,
      "inputs": [],
      "name": "MAX_VALIDATORS",
      "outputs": [
        {
          "name": "",
          "type": "uint256"
        }
      ],
      "payable": false,
      "stateMutability": "view",
      "type": "function"
    },
    {
      "constant": true,
      "inputs": [],
      "name": "VALIDATOR_PRODUCTIVITY_BP",
      "outputs": [
        {
          "name": "",
          "type": "uint256"
        }
      ],
      "payable": false,
      "stateMutability": "view",
      "type": "function"
    },
    {
      "constant": false,
      "inputs": [],
      "name": "finalizeChange",
      "outputs": [],
      "payable": false,
      "stateMutability": "nonpayable",
      "type": "function"
    },
    {
      "constant": true,
      "inputs": [],
      "name": "getMaxValidators",
      "outputs": [
        {
          "name": "",
          "type": "uint256"
        }
      ],
      "payable": false,
      "stateMutability": "pure",
      "type": "function"
    },
    {
      "constant": false,
      "inputs": [
        {
          "name": "_newAddress",
          "type": "address"
        }
      ],
      "name": "setSystemAddressMock",
      "outputs": [],
      "payable": false,
      "stateMutability": "nonpayable",
      "type": "function"
    },
    {
      "constant": true,
      "inputs": [
        {
          "name": "_validator",
          "type": "address"
        }
      ],
      "name": "getStrikes",
      "outputs": [
        {
          "name": "",
          "type": "uint256"
        }
      ],
      "payable": false,
      "stateMutability": "view",
      "type": "function"
    },
    {
      "constant": true,
      "inputs": [
        {
          "name": "_validator",
          "type": "address"
        }
      ],
      "name": "blockCounter",
      "outputs": [
        {
          "name": "",
          "type": "uint256"
        }
      ],
      "payable": false,
      "stateMutability": "view",
      "type": "function"
    },
    {
      "constant": true,
      "inputs": [],
      "name": "CYCLE_DURATION_BLOCKS",
      "outputs": [
        {
          "name": "",
          "type": "uint256"
        }
      ],
      "payable": false,
      "stateMutability": "view",
      "type": "function"
    },
    {
      "constant": false,
      "inputs": [
        {
          "name": "_validator",
          "type": "address"
        }
      ],
      "name": "cycle",
      "outputs": [],
      "payable": false,
      "stateMutability": "nonpayable",
      "type": "function"
    },
    {
      "constant": true,
      "inputs": [],
      "name": "MAX_STRIKE_COUNT",
      "outputs": [
        {
          "name": "",
          "type": "uint256"
        }
      ],
      "payable": false,
      "stateMutability": "view",
      "type": "function"
    },
    {
      "constant": true,
      "inputs": [],
      "name": "getSnapshotsPerCycle",
      "outputs": [
        {
          "name": "",
          "type": "uint256"
        }
      ],
      "payable": false,
      "stateMutability": "pure",
      "type": "function"
    },
    {
      "constant": true,
      "inputs": [],
      "name": "requiredSignatures",
      "outputs": [
        {
          "name": "",
          "type": "uint256"
        }
      ],
      "payable": false,
      "stateMutability": "view",
      "type": "function"
    },
    {
      "constant": true,
      "inputs": [
        {
          "name": "_validator",
          "type": "address"
        }
      ],
      "name": "delegators",
      "outputs": [
        {
          "name": "",
          "type": "address[]"
        }
      ],
      "payable": false,
      "stateMutability": "view",
      "type": "function"
    },
    {
      "constant": true,
      "inputs": [],
      "name": "isFinalized",
      "outputs": [
        {
          "name": "",
          "type": "bool"
        }
      ],
      "payable": false,
      "stateMutability": "view",
      "type": "function"
    },
    {
      "constant": true,
      "inputs": [
        {
          "name": "_p",
          "type": "uint256"
        }
      ],
      "name": "jailedValidatorsAtPosition",
      "outputs": [
        {
          "name": "",
          "type": "address"
        }
      ],
      "payable": false,
      "stateMutability": "view",
      "type": "function"
    },
    {
      "constant": true,
      "inputs": [],
      "name": "getSystemAddress",
      "outputs": [
        {
          "name": "",
          "type": "address"
        }
      ],
      "payable": false,
      "stateMutability": "view",
      "type": "function"
    },
    {
      "constant": true,
      "inputs": [],
      "name": "DEFAULT_VALIDATOR_FEE",
      "outputs": [
        {
          "name": "",
          "type": "uint256"
        }
      ],
      "payable": false,
      "stateMutability": "view",
      "type": "function"
    },
    {
      "constant": true,
      "inputs": [],
      "name": "getCurrentCycleStartBlock",
      "outputs": [
        {
          "name": "",
          "type": "uint256"
        }
      ],
      "payable": false,
      "stateMutability": "view",
      "type": "function"
    },
    {
      "constant": false,
      "inputs": [],
      "name": "emitInitiateChange",
      "outputs": [],
      "payable": false,
      "stateMutability": "nonpayable",
      "type": "function"
    },
    {
      "constant": true,
      "inputs": [],
      "name": "totalStakeAmount",
      "outputs": [
        {
          "name": "",
          "type": "uint256"
        }
      ],
      "payable": false,
      "stateMutability": "view",
      "type": "function"
    },
    {
      "constant": true,
      "inputs": [
        {
          "name": "_validator",
          "type": "address"
        }
      ],
      "name": "validatorFee",
      "outputs": [
        {
          "name": "",
          "type": "uint256"
        }
      ],
      "payable": false,
      "stateMutability": "view",
      "type": "function"
    },
    {
      "constant": false,
      "inputs": [
        {
          "name": "_newSet",
          "type": "address[]"
        }
      ],
      "name": "setNewValidatorSetMock",
      "outputs": [],
      "payable": false,
      "stateMutability": "nonpayable",
      "type": "function"
    },
    {
      "constant": true,
      "inputs": [
        {
          "name": "_validator",
          "type": "address"
        },
        {
          "name": "_address",
          "type": "address"
        }
      ],
      "name": "isDelegator",
      "outputs": [
        {
          "name": "",
          "type": "bool"
        }
      ],
      "payable": false,
      "stateMutability": "view",
      "type": "function"
    },
    {
      "constant": true,
      "inputs": [],
      "name": "currentValidators",
      "outputs": [
        {
          "name": "",
          "type": "address[]"
        }
      ],
      "payable": false,
      "stateMutability": "view",
      "type": "function"
    },
    {
      "constant": true,
      "inputs": [],
      "name": "getCycleDurationBlocks",
      "outputs": [
        {
          "name": "",
          "type": "uint256"
        }
      ],
      "payable": false,
      "stateMutability": "pure",
      "type": "function"
    },
    {
      "constant": true,
      "inputs": [],
      "name": "pendingValidators",
      "outputs": [
        {
          "name": "",
          "type": "address[]"
        }
      ],
      "payable": false,
      "stateMutability": "view",
      "type": "function"
    },
    {
      "constant": true,
      "inputs": [],
      "name": "getCurrentCycleEndBlock",
      "outputs": [
        {
          "name": "",
          "type": "uint256"
        }
      ],
      "payable": false,
      "stateMutability": "view",
      "type": "function"
    },
    {
      "constant": true,
      "inputs": [],
      "name": "getValidators",
      "outputs": [
        {
          "name": "",
          "type": "address[]"
        }
      ],
      "payable": false,
      "stateMutability": "view",
      "type": "function"
    },
    {
      "constant": true,
      "inputs": [
        {
          "name": "_address",
          "type": "address"
        }
      ],
      "name": "stakeAmount",
      "outputs": [
        {
          "name": "",
          "type": "uint256"
        }
      ],
      "payable": false,
      "stateMutability": "view",
      "type": "function"
    },
    {
      "constant": false,
      "inputs": [
        {
          "name": "_initialValidator",
          "type": "address"
        }
      ],
      "name": "initialize",
      "outputs": [],
      "payable": false,
      "stateMutability": "nonpayable",
      "type": "function"
    },
    {
      "constant": true,
      "inputs": [],
      "name": "MAX_STAKE",
      "outputs": [
        {
          "name": "",
          "type": "uint256"
        }
      ],
      "payable": false,
      "stateMutability": "view",
      "type": "function"
    },
    {
      "constant": true,
      "inputs": [],
      "name": "MIN_STAKE",
      "outputs": [
        {
          "name": "",
          "type": "uint256"
        }
      ],
      "payable": false,
      "stateMutability": "view",
      "type": "function"
    },
    {
      "constant": true,
      "inputs": [
        {
          "name": "_validator",
          "type": "address"
        }
      ],
      "name": "getStrikeReset",
      "outputs": [
        {
          "name": "",
          "type": "uint256"
        }
      ],
      "payable": false,
      "stateMutability": "view",
      "type": "function"
    },
    {
      "constant": false,
      "inputs": [
        {
          "name": "_status",
          "type": "bool"
        }
      ],
      "name": "setFinalizedMock",
      "outputs": [],
      "payable": false,
      "stateMutability": "nonpayable",
      "type": "function"
    },
    {
      "constant": true,
      "inputs": [
        {
          "name": "_validator",
          "type": "address"
        }
      ],
      "name": "delegatorsLength",
      "outputs": [
        {
          "name": "",
          "type": "uint256"
        }
      ],
      "payable": false,
      "stateMutability": "view",
      "type": "function"
    },
    {
      "constant": false,
      "inputs": [
        {
          "name": "addr",
          "type": "address"
        },
        {
          "name": "amount",
          "type": "uint256"
        }
      ],
      "name": "addStakeAmountMock",
      "outputs": [],
      "payable": false,
      "stateMutability": "nonpayable",
      "type": "function"
    },
    {
      "constant": true,
      "inputs": [],
      "name": "getNextSnapshotId",
      "outputs": [
        {
          "name": "",
          "type": "uint256"
        }
      ],
      "payable": false,
      "stateMutability": "view",
      "type": "function"
    },
    {
      "constant": true,
      "inputs": [
        {
          "name": "_validator",
          "type": "address"
        },
        {
          "name": "_p",
          "type": "uint256"
        }
      ],
      "name": "delegatorsAtPosition",
      "outputs": [
        {
          "name": "",
          "type": "address"
        }
      ],
      "payable": false,
      "stateMutability": "view",
      "type": "function"
    },
    {
      "constant": true,
      "inputs": [],
      "name": "getProxyStorage",
      "outputs": [
        {
          "name": "",
          "type": "address"
        }
      ],
      "payable": false,
      "stateMutability": "view",
      "type": "function"
    },
    {
      "constant": true,
      "inputs": [
        {
          "name": "_validator",
          "type": "address"
        }
      ],
      "name": "getReleaseBlock",
      "outputs": [
        {
          "name": "",
          "type": "uint256"
        }
      ],
      "payable": false,
      "stateMutability": "view",
      "type": "function"
    },
    {
      "constant": true,
      "inputs": [],
      "name": "shouldEmitInitiateChange",
      "outputs": [
        {
          "name": "",
          "type": "bool"
        }
      ],
      "payable": false,
      "stateMutability": "view",
      "type": "function"
    },
    {
      "constant": false,
      "inputs": [
        {
          "name": "_newSet",
          "type": "address[]"
        }
      ],
      "name": "setStakeAmountMockGroup",
      "outputs": [],
      "payable": false,
      "stateMutability": "nonpayable",
      "type": "function"
    },
    {
      "constant": false,
      "inputs": [
        {
          "name": "_validator",
          "type": "address"
        },
        {
          "name": "_amount",
          "type": "uint256"
        }
      ],
      "name": "withdraw",
      "outputs": [],
      "payable": false,
      "stateMutability": "nonpayable",
      "type": "function"
    },
    {
      "constant": true,
      "inputs": [
        {
          "name": "_address",
          "type": "address"
        }
      ],
      "name": "isValidator",
      "outputs": [
        {
          "name": "",
          "type": "bool"
        }
      ],
      "payable": false,
      "stateMutability": "view",
      "type": "function"
    },
    {
      "constant": true,
      "inputs": [
        {
          "name": "_address",
          "type": "address"
        }
      ],
      "name": "isPendingValidator",
      "outputs": [
        {
          "name": "",
          "type": "bool"
        }
      ],
      "payable": false,
      "stateMutability": "view",
      "type": "function"
    },
    {
      "constant": false,
      "inputs": [
        {
          "name": "_totalStake",
          "type": "uint256"
        }
      ],
      "name": "setTotalStakeAmountMock",
      "outputs": [],
      "payable": false,
      "stateMutability": "nonpayable",
      "type": "function"
    },
    {
      "constant": true,
      "inputs": [],
      "name": "getMaxStake",
      "outputs": [
        {
          "name": "",
          "type": "uint256"
        }
      ],
      "payable": false,
      "stateMutability": "pure",
      "type": "function"
    },
    {
      "payable": true,
      "stateMutability": "payable",
      "type": "fallback"
    },
    {
      "anonymous": false,
      "inputs": [
        {
          "indexed": false,
          "name": "newSet",
          "type": "address[]"
        }
      ],
      "name": "ChangeFinalized",
      "type": "event"
    },
    {
      "anonymous": false,
      "inputs": [],
      "name": "ShouldEmitInitiateChange",
      "type": "event"
    },
    {
      "anonymous": false,
      "inputs": [
        {
          "indexed": true,
          "name": "parentHash",
          "type": "bytes32"
        },
        {
          "indexed": false,
          "name": "newSet",
          "type": "address[]"
        }
      ],
      "name": "InitiateChange",
      "type": "event"
    }
  ],
  "bytecode": "0x60806040526000600f5534801561001557600080fd5b506154f8806100256000396000f3006080604052600436106103815763ffffffff60e060020a6000350416630300fc35811461038e57806308c90076146103b55780630fe9d28e146103ca5780631043ca28146103fe578063108552691461046657806310f606e71461048757806314bfb5271461049c5780631ffbaf68146104d157806321429e60146104e6578063256f91931461050d5780632a807f15146105225780632bec36d2146105375780632c4438511461054c5780632e0f2625146105645780632e1a7d4d14610579578063392e53cd146105915780633a4b66f1146105a657806340c9cdeb146105ae578063416fab2f146105c3578063532e3aaa146105e757806355460f811461060157806356a3b5fa1461061957806357aeefc51461062e5780635c19a95c146106465780635ccee1de1461065a578063651d8c221461066f578063655b08eb146106845780636a28f12f1461069f5780636bdf1d5a1461075c5780636c376cc5146107715780636d6f7e4c146107865780636eae5b111461079e578063714897df146107b357806372e81e32146107c857806375286211146107dd57806376bd510f146107f2578063770c6320146108075780637b1e52a5146108285780637d8f7a61146108495780637e2bf1201461086a57806385cd84641461087f5780638615b171146108a05780638bbc1e6b146108b55780638d068043146108ca5780638d23fc61146108df5780638d4e4083146109005780638da873f8146109155780638dd3848f1461092d57806392b391f314610942578063932781d61461095757806393b4e25e1461096c57806394409a56146109815780639f77dc3014610996578063a0535deb146109b7578063a0e1192914610a0c578063a2cde60914610a33578063a652492314610a48578063a82f255b14610a5d578063af29518114610a72578063b7ab4db514610a87578063bf13526714610a9c578063c4d66de814610abd578063c98517c514610ade578063cb1c2b5c14610af3578063d2166ce914610b08578063d8da60b114610b29578063ddb3f48714610b43578063e552fec414610b64578063e9fbe9d414610b88578063eb431b6a14610b9d578063ec15a5e614610bc1578063ee19a7fc14610bd6578063ef7b6d8914610bf7578063f0a7d43d14610c0c578063f3fef3a314610c61578063facd743b14610c85578063fb64aac114610ca6578063fe03d2e514610cc7578063fe35505b14610cdf575b61038c333433610cf4565b005b34801561039a57600080fd5b506103a3610dbc565b60408051918252519081900360200190f35b3480156103c157600080fd5b506103a3610e72565b3480156103d657600080fd5b506103e2600435610ed4565b60408051600160a060020a039092168252519081900360200190f35b34801561040a57600080fd5b50610416600435610f9b565b60408051602080825283518183015283519192839290830191858101910280838360005b8381101561045257818101518382015260200161043a565b505050509050019250505060405180910390f35b34801561047257600080fd5b5061038c600160a060020a03600435166110d6565b34801561049357600080fd5b506103a36113f5565b3480156104a857600080fd5b506104bd600160a060020a0360043516611401565b604080519115158252519081900360200190f35b3480156104dd57600080fd5b506104bd611452565b3480156104f257600080fd5b506103a3600160a060020a0360043581169060243516611461565b34801561051957600080fd5b506103a3611525565b34801561052e57600080fd5b506103a361152a565b34801561054357600080fd5b506103a361158c565b34801561055857600080fd5b5061038c600435611600565b34801561057057600080fd5b506103a3611605565b34801561058557600080fd5b5061038c600435611611565b34801561059d57600080fd5b506104bd61161f565b61038c6116d7565b3480156105ba57600080fd5b506103a36116e4565b3480156105cf57600080fd5b5061038c600160a060020a0360043516602435611700565b3480156105f357600080fd5b5061038c60043515156117c4565b34801561060d57600080fd5b5061038c600435611837565b34801561062557600080fd5b506103a361187e565b34801561063a57600080fd5b506103e260043561188c565b61038c600160a060020a03600435166118ee565b34801561066657600080fd5b506104166118f9565b34801561067b57600080fd5b50610416611a02565b34801561069057600080fd5b506103a3600435602435611a64565b3480156106ab57600080fd5b506106c3600160a060020a0360043516602435611a77565b604051808060200180602001838103835285818151815260200191508051906020019060200280838360005b838110156107075781810151838201526020016106ef565b50505050905001838103825284818151815260200191508051906020019060200280838360005b8381101561074657818101518382015260200161072e565b5050505090500194505050505060405180910390f35b34801561076857600080fd5b506103a3611b75565b34801561077d57600080fd5b5061038c611b7a565b34801561079257600080fd5b5061038c600435611baa565b3480156107aa57600080fd5b5061038c611bbf565b3480156107bf57600080fd5b506103a3611bf8565b3480156107d457600080fd5b506103a3611bfd565b3480156107e957600080fd5b5061038c611c03565b3480156107fe57600080fd5b506103a3611d7c565b34801561081357600080fd5b5061038c600160a060020a0360043516611d81565b34801561083457600080fd5b506103a3600160a060020a0360043516611f15565b34801561085557600080fd5b506103a3600160a060020a0360043516611fd9565b34801561087657600080fd5b506103a361205b565b34801561088b57600080fd5b5061038c600160a060020a0360043516612061565b3480156108ac57600080fd5b506103a3612381565b3480156108c157600080fd5b506103a3612386565b3480156108d657600080fd5b506103a361238b565b3480156108eb57600080fd5b50610416600160a060020a03600435166123ab565b34801561090c57600080fd5b506104bd61242d565b34801561092157600080fd5b506103e26004356124a1565b34801561093957600080fd5b506103e2612503565b34801561094e57600080fd5b506103a36125c1565b34801561096357600080fd5b506103a36125cd565b34801561097857600080fd5b5061038c612641565b34801561098d57600080fd5b506103a3612704565b3480156109a257600080fd5b506103a3600160a060020a0360043516612766565b3480156109c357600080fd5b506040805160206004803580820135838102808601850190965280855261038c953695939460249493850192918291850190849080828437509497506127fa9650505050505050565b348015610a1857600080fd5b506104bd600160a060020a03600435811690602435166128bc565b348015610a3f57600080fd5b50610416612910565b348015610a5457600080fd5b506103a3612972565b348015610a6957600080fd5b50610416612977565b348015610a7e57600080fd5b506103a36129d9565b348015610a9357600080fd5b50610416612a4d565b348015610aa857600080fd5b506103a3600160a060020a0360043516612a57565b348015610ac957600080fd5b5061038c600160a060020a0360043516612ad9565b348015610aea57600080fd5b506103a3612c0f565b348015610aff57600080fd5b506103a3612c1d565b348015610b1457600080fd5b506103a3600160a060020a0360043516612c2b565b348015610b3557600080fd5b5061038c6004351515612cad565b348015610b4f57600080fd5b506103a3600160a060020a0360043516612d20565b348015610b7057600080fd5b5061038c600160a060020a0360043516602435612da2565b348015610b9457600080fd5b506103a3612dac565b348015610ba957600080fd5b506103e2600160a060020a0360043516602435612e20565b348015610bcd57600080fd5b506103e2612f08565b348015610be257600080fd5b506103a3600160a060020a0360043516612f7c565b348015610c0357600080fd5b506104bd613010565b348015610c1857600080fd5b506040805160206004803580820135838102808601850190965280855261038c953695939460249493850192918291850190849080828437509497506130849650505050505050565b348015610c6d57600080fd5b5061038c600160a060020a03600435166024356130c1565b348015610c9157600080fd5b506104bd600160a060020a03600435166130cc565b348015610cb257600080fd5b506104bd600160a060020a0360043516613112565b348015610cd357600080fd5b5061038c600435613158565b348015610ceb57600080fd5b506103a3613161565b600160a060020a0383161515610d0957600080fd5b811515610d1557600080fd5b600160a060020a0381161515610d2a57600080fd5b610d3583828461316f565b610d3f818361332a565b610d47613161565b610d5082612a57565b1115610d5b57600080fd5b610d6361187e565b610d6c82612a57565b10158015610d805750610d7e81613112565b155b15610da057610d8e8161342e565b610da081670214e8348c4f0000613511565b610da9816130cc565b15610db757610db7826135a4565b505050565b60006002600060405160200180807f6c617374536e617073686f7454616b656e4174426c6f636b000000000000000081525060180190506040516020818303038152906040526040518082805190602001908083835b60208310610e315780518252601f199092019160209182019101610e12565b51815160209384036101000a600019018019909216911617905260408051929094018290039091208652850195909552929092016000205493505050505b90565b6000600a6000604051602001808060008051602061538d833981519152815250601001905060405160208183030381529060405260405180828051906020019080838360208310610e315780518252601f199092019160209182019101610e12565b6000600a600060405160200180806000805160206153ed83398151915281525060110190506040516020818303038152906040526040518082805190602001908083835b60208310610f375780518252601f199092019160209182019101610f18565b51815160209384036101000a60001901801990921691161790526040805192909401829003909120865285019590955292909201600020805490935085925082109050610f8057fe5b600091825260209091200154600160a060020a031692915050565b6060600a60008360405160200180807f736e617073686f74000000000000000000000000000000000000000000000000815250600801828152602001807f61646472657373657300000000000000000000000000000000000000000000008152506009019150506040516020818303038152906040526040518082805190602001908083835b602083106110405780518252601f199092019160209182019101611021565b51815160209384036101000a6000190180199092169116179052604080519290940182900390912086528581019690965250928301600020805484518187028101870190955280855293949093925084019050828280156110ca57602002820191906000526020600020905b8154600160a060020a031681526001909101906020018083116110ac575b50505050509050919050565b6004600060405160200180807f6f776e657200000000000000000000000000000000000000000000000000000081525060050190506040516020818303038152906040526040518082805190602001908083835b602083106111495780518252601f19909201916020918201910161112a565b51815160209384036101000a6000190180199092169116179052604080519290940182900390912086528501959095529290920160002054600160a060020a03163314925061119a91505057600080fd5b600160a060020a03811615156111af57600080fd5b6006600060405160200180807f77617350726f787953746f72616765536574000000000000000000000000000081525060120190506040516020818303038152906040526040518082805190602001908083835b602083106112225780518252601f199092019160209182019101611203565b51815160209384036101000a600019018019909216911617905260408051929094018290039091208652850195909552929092016000205460ff1615925061126c91505057600080fd5b806004600060405160200180807f70726f787953746f726167650000000000000000000000000000000000000000815250600c0190506040516020818303038152906040526040518082805190602001908083835b602083106112e05780518252601f1990920191602091820191016112c1565b51815160209384036101000a600019018019909216911617905260408051929094018290039091208652858101969096525092830160009081208054600160a060020a031916600160a060020a039790971696909617909555505080517f77617350726f787953746f7261676553657400000000000000000000000000008184015281516012818303018152603290910191829052805160019460069490939182918401908083835b602083106113a85780518252601f199092019160209182019101611389565b51815160209384036101000a60001901801990921691161790526040805192909401829003909120865285019590955292909201600020805460ff19169415159490941790935550505050565b670214e8348c4f000090565b6000805b61140d610e72565b8110156114475761141d816124a1565b600160a060020a031683600160a060020a0316141561143f576001915061144c565b600101611405565b600091505b50919050565b600061145c6136aa565b905090565b6040805160008051602061548d833981519152602080830191909152606060020a600160a060020a038087168202602f85015285160260438301528251603781840301815260579092019283905281516000936002938593909282918401908083835b602083106114e35780518252601f1990920191602091820191016114c4565b51815160209384036101000a60001901801990921691161790526040805192909401829003909120865285019590955292909201600020549695505050505050565b600081565b6000600a600060405160200180806000805160206153ed833981519152815250601101905060405160208183030381529060405260405180828051906020019080838360208310610e315780518252601f199092019160209182019101610e12565b6000600a600060405160200180807f6e657756616c696461746f725365740000000000000000000000000000000000815250600f01905060405160208183030381529060405260405180828051906020019080838360208310610e315780518252601f199092019160209182019101610e12565b600f55565b670de0b6b3a764000081565b61161c3382336136bc565b50565b60006006600060405160200180807f6973496e697469616c697a656400000000000000000000000000000000000000815250600d0190506040516020818303038152906040526040518082805190602001908083835b602083106116945780518252601f199092019160209182019101611675565b51815160209384036101000a600019018019909216911617905260408051929094018290039091208652850195909552929092016000205460ff16949350505050565b6116e2333433610cf4565b565b600f54600090156116f85750600f54610e6f565b61145c6137d6565b80600260008460405160200180806000805160206153cd833981519152815250600c0182600160a060020a0316600160a060020a0316606060020a0281526014019150506040516020818303038152906040526040518082805190602001908083835b602083106117825780518252601f199092019160209182019101611763565b51815160209384036101000a60001901801990921691161790526040805192909401829003909120865285019590955292909201600020939093555050505050565b806006600060405160200180807f73686f756c64456d6974496e6974696174654368616e676500000000000000008152506018019050604051602081830303815290604052604051808280519060200190808383602083106113a85780518252601f199092019160209182019101611389565b611840336130cc565b151561184b57600080fd5b670de0b6b3a764000081111561186057600080fd5b6118686113f5565b81101561187457600080fd5b61161c3382613511565b69021e19e0c9bab240000090565b6000600a6000604051602001808060008051602061546d833981519152815250601101905060405160208183030381529060405260405180828051906020019080838360208310610f375780518252601f199092019160209182019101610f18565b61161c333483610cf4565b6060600a600060405160200180807f6e657756616c696461746f725365740000000000000000000000000000000000815250600f0190506040516020818303038152906040526040518082805190602001908083835b6020831061196e5780518252601f19909201916020918201910161194f565b51815160209384036101000a6000190180199092169116179052604080519290940182900390912086528581019690965250928301600020805484518187028101870190955280855293949093925084019050828280156119f857602002820191906000526020600020905b8154600160a060020a031681526001909101906020018083116119da575b5050505050905090565b6060600a6000604051602001808060008051602061538d83398151915281525060100190506040516020818303038152906040526040518082805190602001908083836020831061196e5780518252601f19909201916020918201910161194f565b6000611a708383613838565b9392505050565b6060806060806000806000611a8b896123ab565b94508451604051908082528060200260200182016040528015611ab8578160200160208202803883390190505b509350611ad4611ac661187e565b611acf8b612a57565b613865565b92505b8451821015611b6657611af3611aed8a84612e20565b8a611461565b9050611b43670de0b6b3a7640000611b2b611b0d8c612766565b670de0b6b3a764000003611b3787611b2b8e8863ffffffff61387c16565b9063ffffffff6138aa16565b9063ffffffff61387c16565b8483815181101515611b5157fe5b60209081029091010152600190910190611ad7565b50929791965090945050505050565b603281565b611b83336130cc565b1515611b8e57600080fd5b611b9733611401565b15611ba157600080fd5b6116e2336138cd565b670de0b6b3a764000081111561187457600080fd5b611bc833611401565b1515611bd357600080fd5b611bdb6129d9565b611be433612f7c565b1115611bef57600080fd5b6116e2336138df565b606481565b610bb881565b6004600060405160200180807f53595354454d5f41444452455353000000000000000000000000000000000000815250600e0190506040516020818303038152906040526040518082805190602001908083835b60208310611c765780518252601f199092019160209182019101611c57565b51815160209384036101000a6000190180199092169116179052604080519290940182900390912086528501959095529290920160002054600160a060020a031633149250611cc791505057600080fd5b611ccf61242d565b15611cd957600080fd5b6000611ce361158c565b1115611d7257611cf9611cf46118f9565b61391b565b7f8564cd629b15f47dc310d45bcbfc9bcf5420b0d51bf0659a16c67f91d2763253611d22612910565b60408051602080825283518183015283519192839290830191858101910280838360005b83811015611d5e578181015183820152602001611d46565b505050509050019250505060405180910390a15b6116e26001612cad565b606490565b6004600060405160200180807f6f776e657200000000000000000000000000000000000000000000000000000081525060050190506040516020818303038152906040526040518082805190602001908083835b60208310611df45780518252601f199092019160209182019101611dd5565b51815160209384036101000a6000190180199092169116179052604080519290940182900390912086528501959095529290920160002054600160a060020a031633149250611e4591505057600080fd5b806004600060405160200180807f53595354454d5f41444452455353000000000000000000000000000000000000815250600e0190506040516020818303038152906040526040518082805190602001908083835b60208310611eb95780518252601f199092019160209182019101611e9a565b51815160209384036101000a600019018019909216911617905260408051929094018290039091208652850195909552929092016000208054600160a060020a031916600160a060020a03959095169490941790935550505050565b6000600260008360405160200180806000805160206154ad833981519152815250600b0182600160a060020a0316600160a060020a0316606060020a0281526014019150506040516020818303038152906040526040518082805190602001908083835b60208310611f985780518252601f199092019160209182019101611f79565b51815160209384036101000a600019018019909216911617905260408051929094018290039091208652850195909552929092016000205495945050505050565b6000600260008360405160200180806000805160206153cd833981519152815250600c0182600160a060020a0316600160a060020a0316606060020a02815260140191505060405160208183030381529060405260405180828051906020019080838360208310611f985780518252601f199092019160209182019101611f79565b61438081565b606061206b612f08565b600160a060020a031663f89d40866040518163ffffffff1660e060020a028152600401602060405180830381600087803b1580156120a857600080fd5b505af11580156120bc573d6000803e3d6000fd5b505050506040513d60208110156120d257600080fd5b5051600160a060020a031633146120e857600080fd5b6120f182613a6e565b6120f96136aa565b1561237d57612106612f08565b600160a060020a0316631986d3766040518163ffffffff1660e060020a028152600401602060405180830381600087803b15801561214357600080fd5b505af1158015612157573d6000803e3d6000fd5b505050506040513d602081101561216d57600080fd5b5051600160a060020a031663bbac62c8612185612910565b6040518263ffffffff1660e060020a0281526004018080602001828103825283818151815260200191508051906020019060200280838360005b838110156121d75781810151838201526020016121bf565b5050505090500192505050600060405180830381600087803b1580156121fc57600080fd5b505af1158015612210573d6000803e3d6000fd5b5050505061221c613b9e565b61222c612227612910565b613d0f565b612234612977565b905060008151111561224957612249816127fa565b600061225361158c565b1115612297576122636000612cad565b61226d60016117c4565b6040517fad8a61077dff62d25ea1bf7cf1af88e1b48075c3d497d494ac9b129b73b0d37c90600090a15b61229f612f08565b600160a060020a031663f89d40866040518163ffffffff1660e060020a028152600401602060405180830381600087803b1580156122dc57600080fd5b505af11580156122f0573d6000803e3d6000fd5b505050506040513d602081101561230657600080fd5b5051604080517fb1f0c8e10000000000000000000000000000000000000000000000000000000081529051600160a060020a039092169163b1f0c8e19160048082019260009290919082900301818387803b15801561236457600080fd5b505af1158015612378573d6000803e3d6000fd5b505050505b5050565b600581565b600a90565b600061145c600161239f6002611b2b6116e4565b9063ffffffff613df416565b6060600a60008360405160200180806000805160206153ad833981519152815250600a0182600160a060020a0316600160a060020a0316606060020a028152601401915050604051602081830303815290604052604051808280519060200190808383602083106110405780518252601f199092019160209182019101611021565b60006006600060405160200180807f697346696e616c697a6564000000000000000000000000000000000000000000815250600b019050604051602081830303815290604052604051808280519060200190808383602083106116945780518252601f199092019160209182019101611675565b6000600a6000604051602001808060008051602061538d833981519152815250601001905060405160208183030381529060405260405180828051906020019080838360208310610f375780518252601f199092019160209182019101610f18565b60006004600060405160200180807f53595354454d5f41444452455353000000000000000000000000000000000000815250600e0190506040516020818303038152906040526040518082805190602001908083835b602083106125785780518252601f199092019160209182019101612559565b51815160209384036101000a6000190180199092169116179052604080519290940182900390912086528501959095529290920160002054600160a060020a0316949350505050565b670214e8348c4f000081565b60006002600060405160200180807f63757272656e744379636c655374617274426c6f636b00000000000000000000815250601601905060405160208183030381529060405260405180828051906020019080838360208310610e315780518252601f199092019160209182019101610e12565b61264a336130cc565b151561265557600080fd5b61265d613010565b151561266857600080fd5b600061267261158c565b1161267c57600080fd5b6000194301407f55252fa6eee4741b4e24a74a70e9c11fd2c2281df8d6ea13126ff845f7825c896126ab6118f9565b60408051602080825283518183015283519192839290830191858101910280838360005b838110156126e75781810151838201526020016126cf565b505050509050019250505060405180910390a26116e260006117c4565b600060026000604051602001808060008051602061544d833981519152815250601001905060405160208183030381529060405260405180828051906020019080838360208310610e315780518252601f199092019160209182019101610e12565b6000600260008360405160200180807f76616c696461746f724665650000000000000000000000000000000000000000815250600c0182600160a060020a0316600160a060020a0316606060020a02815260140191505060405160208183030381529060405260405180828051906020019080838360208310611f985780518252601f199092019160209182019101611f79565b80600a600060405160200180807f6e657756616c696461746f725365740000000000000000000000000000000000815250600f0190506040516020818303038152906040526040518082805190602001908083835b6020831061286e5780518252601f19909201916020918201910161284f565b51815160001960209485036101000a0190811690199190911617905260408051949092018490039093208652858301969096525092909301600020845161237d9591945092019190506152c5565b6000805b6128c984612d20565b811015612904576128da8482612e20565b600160a060020a031683600160a060020a031614156128fc5760019150612909565b6001016128c0565b600091505b5092915050565b6060600a6000604051602001808060008051602061546d83398151915281525060110190506040516020818303038152906040526040518082805190602001908083836020831061196e5780518252601f19909201916020918201910161194f565b607890565b6060600a600060405160200180806000805160206153ed83398151915281525060110190506040516020818303038152906040526040518082805190602001908083836020831061196e5780518252601f19909201916020918201910161194f565b60006002600060405160200180807f63757272656e744379636c65456e64426c6f636b000000000000000000000000815250601401905060405160208183030381529060405260405180828051906020019080838360208310610e315780518252601f199092019160209182019101610e12565b606061145c612910565b60006002600083604051602001808060008051602061542d833981519152815250600b0182600160a060020a0316600160a060020a0316606060020a02815260140191505060405160208183030381529060405260405180828051906020019080838360208310611f985780518252601f199092019160209182019101611f79565b6004600060405160200180807f6f776e657200000000000000000000000000000000000000000000000000000081525060050190506040516020818303038152906040526040518082805190602001908083835b60208310612b4c5780518252601f199092019160209182019101612b2d565b51815160209384036101000a6000190180199092169116179052604080519290940182900390912086528501959095529290920160002054600160a060020a031633149250612b9d91505057600080fd5b612ba561161f565b15612baf57600080fd5b612bcc73fffffffffffffffffffffffffffffffffffffffe611e45565b612bd4613b9e565b600160a060020a0381161515612bf257612bed33613e06565b612bfb565b612bfb81613e06565b612c056001612cad565b61161c6001613e66565b69043c33c193756480000081565b69021e19e0c9bab240000081565b60006002600083604051602001808060008051602061540d833981519152815250600b0182600160a060020a0316600160a060020a0316606060020a02815260140191505060405160208183030381529060405260405180828051906020019080838360208310611f985780518252601f199092019160209182019101611f79565b806006600060405160200180807f697346696e616c697a6564000000000000000000000000000000000000000000815250600b019050604051602081830303815290604052604051808280519060200190808383602083106113a85780518252601f199092019160209182019101611389565b6000600a60008360405160200180806000805160206153ad833981519152815250600a0182600160a060020a0316600160a060020a0316606060020a02815260140191505060405160208183030381529060405260405180828051906020019080838360208310611f985780518252601f199092019160209182019101611f79565b61237d828261332a565b60006002600060405160200180807f6e657874536e617073686f744964000000000000000000000000000000000000815250600e01905060405160208183030381529060405260405180828051906020019080838360208310610e315780518252601f199092019160209182019101610e12565b6000600a60008460405160200180806000805160206153ad833981519152815250600a0182600160a060020a0316600160a060020a0316606060020a0281526014019150506040516020818303038152906040526040518082805190602001908083835b60208310612ea35780518252601f199092019160209182019101612e84565b51815160209384036101000a60001901801990921691161790526040805192909401829003909120865285019590955292909201600020805490935085925082109050612eec57fe5b600091825260209091200154600160a060020a03169392505050565b60006004600060405160200180807f70726f787953746f726167650000000000000000000000000000000000000000815250600c019050604051602081830303815290604052604051808280519060200190808383602083106125785780518252601f199092019160209182019101612559565b6000600260008360405160200180807f72656c65617365426c6f636b0000000000000000000000000000000000000000815250600c0182600160a060020a0316600160a060020a0316606060020a02815260140191505060405160208183030381529060405260405180828051906020019080838360208310611f985780518252601f199092019160209182019101611f79565b60006006600060405160200180807f73686f756c64456d6974496e6974696174654368616e676500000000000000008152506018019050604051602081830303815290604052604051808280519060200190808383602083106116945780518252601f199092019160209182019101611675565b60005b815181101561237d576130b982828151811015156130a157fe5b90602001906020020151670de0b6b3a764000061332a565b600101613087565b61237d3382846136bc565b6000805b6130d86116e4565b811015611447576130e88161188c565b600160a060020a031683600160a060020a0316141561310a576001915061144c565b6001016130d0565b6000805b61311e61152a565b8110156114475761312e81610ed4565b600160a060020a031683600160a060020a03161415613150576001915061144c565b600101613116565b61161c81613ed9565b690a968163f0a57b40000090565b6040805160008051602061548d833981519152602080830191909152606060020a600160a060020a038088168202602f850152861602604383015282516037818403018152605790920192839052815161323993859360029360009391929182918401908083835b602083106131f65780518252601f1990920191602091820191016131d7565b51815160209384036101000a600019018019909216911617905260408051929094018290039091208652850195909552929092016000205493925050613df49050565b6040805160008051602061548d833981519152602080830191909152606060020a600160a060020a038089168202602f850152871602604383015282516037818403018152605790920192839052815160029360009392909182918401908083835b602083106132ba5780518252601f19909201916020918201910161329b565b51815160209384036101000a6000190180199092169116179052604080519290940182900390912086528501959095529290920160002093909355505050600160a060020a038281169084161480159061331b575061331982846128bc565b155b15610db757610db78383613f3a565b6133ae816002600085604051602001808060008051602061542d833981519152815250600b0182600160a060020a0316600160a060020a0316606060020a028152601401915050604051602081830303815290604052604051808280519060200190808383602083106131f65780518252601f1990920191602091820191016131d7565b6002600084604051602001808060008051602061542d833981519152815250600b0182600160a060020a0316600160a060020a0316606060020a028152601401915050604051602081830303815290604052604051808280519060200190808383602083106117825780518252601f199092019160209182019101611763565b61343781611401565b1561344157600080fd5b600a600060405160200180806000805160206153ed83398151915281525060110190506040516020818303038152906040526040518082805190602001908083835b602083106134a25780518252601f199092019160209182019101613483565b51815160209384036101000a600019018019909216911617905260408051929094018290039091208652858101969096525092909201600090812080546001810182559082529390209092018054600160a060020a031916600160a060020a0394909416939093179092555050565b80600260008460405160200180807f76616c696461746f724665650000000000000000000000000000000000000000815250600c0182600160a060020a0316600160a060020a0316606060020a028152601401915050604051602081830303815290604052604051808280519060200190808383602083106117825780518252601f199092019160209182019101611763565b6136088160026000604051602001808060008051602061544d8339815191528152506010019050604051602081830303815290604052604051808280519060200190808383602083106131f65780518252601f1990920191602091820191016131d7565b60026000604051602001808060008051602061544d83398151915281525060100190506040516020818303038152906040526040518082805190602001908083835b602083106136695780518252601f19909201916020918201910161364a565b51815160209384036101000a600019018019909216911617905260408051929094018290039091208652850195909552929092016000209390935550505050565b60006136b46129d9565b431015905090565b6000600160a060020a03821615156136d357600080fd5b600083116136e057600080fd5b6136e982612a57565b8311156136f557600080fd5b6136ff8483611461565b83111561370b57600080fd5b613714826130cc565b905061371e61187e565b6137378461372b85612a57565b9063ffffffff61402b16565b1080156137415750805b156137545761374f82614042565b6137d0565b61375f848385614240565b6137698284614492565b80156137785761377883614516565b61378061187e565b61378983612a57565b10156137985761379882614042565b604051600160a060020a0385169084156108fc029085906000818181858888f193505050501580156137ce573d6000803e3d6000fd5b505b50505050565b6000600a6000604051602001808060008051602061546d833981519152815250601101905060405160208183030381529060405260405180828051906020019080838360208310610e315780518252601f199092019160209182019101610e12565b6000611a708361239f613851858363ffffffff61402b16565b61385961457a565b9063ffffffff6145fd16565b6000818310156138755781611a70565b5090919050565b60008083151561388f5760009150612909565b5082820282848281151561389f57fe5b0414611a7057600080fd5b6000808083116138b957600080fd5b82848115156138c457fe5b04949350505050565b6138d681614042565b61161c8161461e565b6138e88161467e565b6138f061187e565b6138f982612a57565b1015801561390d575061390b81613112565b155b1561161c5761161c8161342e565b60008080805b84518310156139b55761394a858481518110151561393b57fe5b90602001906020020151612a57565b91508184019350613971858481518110151561396257fe5b90602001906020020151612766565b905061397b6113f5565b8110156139aa576139aa858481518110151561399357fe5b906020019060200201516139a56113f5565b613511565b600190920191613921565b6139be84613ed9565b84600a6000604051602001808060008051602061546d83398151915281525060110190506040516020818303038152906040526040518082805190602001908083835b60208310613a205780518252601f199092019160209182019101613a01565b51815160001960209485036101000a019081169019919091161790526040805194909201849003909320865285830196909652509290930160002084516123789591945092019190506152c5565b600260008260405160200180806000805160206153cd833981519152815250600c0182600160a060020a0316600160a060020a0316606060020a0281526014019150506040516020818303038152906040526040518082805190602001908083835b60208310613aef5780518252601f199092019160209182019101613ad0565b51815160209384036101000a600019018019909216911617905260408051929094018290039091208652858101969096525092830160009081205484516000805160206153cd83398151915281880152600160a060020a038816606060020a02602c82015285518082038801815290860195869052805160019092019660029693955090935082918482019181908490849083106136695780518252601f19909201916020918201910161364a565b436002600060405160200180807f63757272656e744379636c655374617274426c6f636b0000000000000000000081525060160190506040516020818303038152906040526040518082805190602001908083835b60208310613c125780518252601f199092019160209182019101613bf3565b51815160209384036101000a600019018019909216911617905260408051929094018290039091208652850195909552929092016000209390935550613c5a91506129729050565b43016002600060405160200180807f63757272656e744379636c65456e64426c6f636b00000000000000000000000081525060140190506040516020818303038152906040526040518082805190602001908083835b60208310613ccf5780518252601f199092019160209182019101613cb0565b51815160209384036101000a6000190180199092169116179052604080519290940182900390912086528501959095529290920160002093909355505050565b600080613d2b612710611b2b8551611b2b610bb8611b37612972565b9150600090505b8251811015610db75781613d5c8483815181101515613d4d57fe5b90602001906020020151611fd9565b1015613d8757613d828382815181101515613d7357fe5b90602001906020020151614824565b613dcc565b613da78382815181101515613d9857fe5b90602001906020020151611f15565b15613dcc57613dcc8382815181101515613dbd57fe5b90602001906020020151614848565b613dec8382815181101515613ddd57fe5b90602001906020020151614a87565b600101613d32565b600082820183811015611a7057600080fd5b600a6000604051602001808060008051602061546d8339815191528152506011019050604051602081830303815290604052604051808280519060200190808383602083106134a25780518252601f199092019160209182019101613483565b806006600060405160200180807f6973496e697469616c697a656400000000000000000000000000000000000000815250600d019050604051602081830303815290604052604051808280519060200190808383602083106113a85780518252601f199092019160209182019101611389565b8060026000604051602001808060008051602061544d8339815191528152506010019050604051602081830303815290604052604051808280519060200190808383602083106136695780518252601f19909201916020918201910161364a565b600a60008260405160200180806000805160206153ad833981519152815250600a0182600160a060020a0316600160a060020a0316606060020a0281526014019150506040516020818303038152906040526040518082805190602001908083835b60208310613fbb5780518252601f199092019160209182019101613f9c565b51815160209384036101000a600019018019909216911617905260408051929094018290039091208652858101969096525092909201600090812080546001810182559082529390209092018054600160a060020a031916600160a060020a039590951694909417909355505050565b6000808383111561403b57600080fd5b5050900390565b6000808080805b61405161152a565b8310156140915761406183610ed4565b600160a060020a031686600160a060020a031614156140865782935060019450614091565b600190920191614049565b84156123785760016140a161152a565b0391506140ad82610ed4565b9050600160a060020a038116156140c8576140c88482614b09565b600a600060405160200180806000805160206153ed83398151915281525060110190506040516020818303038152906040526040518082805190602001908083835b602083106141295780518252601f19909201916020918201910161410a565b51815160209384036101000a6000190180199092169116179052604080519290940182900390912086528501959095529290920160002080549093508592508210905061417257fe5b600091825260208083209091018054600160a060020a0319169055604080516000805160206153ed83398151915281840152815180820360110181526031909101918290528051600a94939192918291908401908083835b602083106141e95780518252601f1990920191602091820191016141ca565b51815160001960209485036101000a8101918216911992909216179091526040805195909301859003909420875286019690965250929093016000208054935061423792909150830161532a565b50505050505050565b6040805160008051602061548d833981519152602080830191909152606060020a600160a060020a038088168202602f850152861602604383015282516037818403018152605790920192839052815161430a93859360029360009391929182918401908083835b602083106142c75780518252601f1990920191602091820191016142a8565b51815160209384036101000a60001901801990921691161790526040805192909401829003909120865285019590955292909201600020549392505061402b9050565b6040805160008051602061548d833981519152602080830191909152606060020a600160a060020a038089168202602f850152871602604383015282516037818403018152605790920192839052815160029360009392909182918401908083835b6020831061438b5780518252601f19909201916020918201910161436c565b51815160001960209485036101000a019081169019919091161790526040805194909201849003909320865285830196909652509284016000908120959095555050815160008051602061548d83398151915281830152606060020a600160a060020a038089168202602f84015287160260438201528251603781830301815260579091019283905280516002949391928291908401908083835b602083106144455780518252601f199092019160209182019101614426565b51815160209384036101000a600019018019909216911617905260408051929094018290039091208652850195909552929092016000205415159250610db791505057610db78383614be6565b6133ae816002600085604051602001808060008051602061542d833981519152815250600b0182600160a060020a0316600160a060020a0316606060020a028152601401915050604051602081830303815290604052604051808280519060200190808383602083106142c75780518252601f1990920191602091820191016142a8565b6136088160026000604051602001808060008051602061544d8339815191528152506010019050604051602081830303815290604052604051808280519060200190808383602083106142c75780518252601f1990920191602091820191016142a8565b60408051600019430140602080830191909152825180830382018152918301928390528151600093918291908401908083835b602083106145cc5780518252601f1990920191602091820191016145ad565b5181516020939093036101000a60001901801990911692169190911790526040519201829003909120949350505050565b600081151561460b57600080fd5b818381151561461657fe5b069392505050565b600a6000604051602001808060008051602061538d8339815191528152506010019050604051602081830303815290604052604051808280519060200190808383602083106134a25780518252601f199092019160209182019101613483565b6000808080805b61468d610e72565b8310156146cd5761469d836124a1565b600160a060020a031686600160a060020a031614156146c257829350600194506146cd565b600190920191614685565b84156123785760016146dd610e72565b0391506146e9826124a1565b9050600160a060020a03811615614704576147048482614e1f565b600a6000604051602001808060008051602061538d83398151915281525060100190506040516020818303038152906040526040518082805190602001908083835b602083106147655780518252601f199092019160209182019101614746565b51815160209384036101000a600019018019909216911617905260408051929094018290039091208652850195909552929092016000208054909350859250821090506147ae57fe5b600091825260208083209091018054600160a060020a03191690556040805160008051602061538d83398151915281840152815180820360100181526030909101918290528051600a9493919291829190840190808383602083106141e95780518252601f1990920191602091820191016141ca565b61482d81614042565b6148368161461e565b61483f81614e80565b61161c816150c3565b6002600082604051602001808060008051602061540d833981519152815250600b0182600160a060020a0316600160a060020a0316606060020a0281526014019150506040516020818303038152906040526040518082805190602001908083835b602083106148c95780518252601f1990920191602091820191016148aa565b51815160209384036101000a6000190180199092169116179052604080519290940182900390912086528581019690965250928301600090812054845160008051602061540d83398151915281880152600160a060020a038816606060020a02602b8201528551808203601f018152603f9091019586905280516001909201966002969395509093508291908401908083835b6020831061497b5780518252601f19909201916020918201910161495c565b51815160209384036101000a60001901801990921691161790526040805192909401829003909120865285810196909652509283016000908120959095555050805160008051602061540d83398151915281840152600160a060020a038516606060020a02602b8201528151808203601f018152603f90910191829052805160329460029490939182918401908083835b60208310614a2b5780518252601f199092019160209182019101614a0c565b6001836020036101000a03801982511681845116808217855250505050505090500191505060405180910390206000191660001916815260200190815260200160002054111561161c57614a7e816150c3565b61161c81615145565b6000600260008360405160200180806000805160206153cd833981519152815250600c0182600160a060020a0316600160a060020a0316606060020a028152601401915050604051602081830303815290604052604051808280519060200190808383602083106136695780518252601f19909201916020918201910161364a565b80600a600060405160200180806000805160206153ed83398151915281525060110190506040516020818303038152906040526040518082805190602001908083835b60208310614b6b5780518252601f199092019160209182019101614b4c565b51815160209384036101000a60001901801990921691161790526040805192909401829003909120865285019590955292909201600020805490935086925082109050614bb457fe5b9060005260206000200160006101000a815481600160a060020a030219169083600160a060020a031602179055505050565b6000808080805b614bf686612d20565b831015614c3757614c078684612e20565b600160a060020a031687600160a060020a03161415614c2c5782935060019450614c37565b600190920191614bed565b8415614237576001614c4887612d20565b039150614c558683612e20565b9050600160a060020a03811615614c7157614c718685836151c7565b600a60008760405160200180806000805160206153ad833981519152815250600a0182600160a060020a0316600160a060020a0316606060020a0281526014019150506040516020818303038152906040526040518082805190602001908083835b60208310614cf25780518252601f199092019160209182019101614cd3565b51815160209384036101000a60001901801990921691161790526040805192909401829003909120865285019590955292909201600020805490935085925082109050614d3b57fe5b600091825260208083209091018054600160a060020a0319169055604080516000805160206153ad83398151915281840152606060020a600160a060020a038b1602602a8201528151601e818303018152603e909101918290528051600a94939192918291908401908083835b60208310614dc75780518252601f199092019160209182019101614da8565b51815160001960209485036101000a81019182169119929092161790915260408051959093018590039094208752860196909652509290930160002080549350614e1592909150830161532a565b5050505050505050565b80600a6000604051602001808060008051602061538d833981519152815250601001905060405160208183030381529060405260405180828051906020019080838360208310614b6b5780518252601f199092019160209182019101614b4c565b6000600260008360405160200180806000805160206154ad833981519152815250600b0182600160a060020a0316600160a060020a0316606060020a0281526014019150506040516020818303038152906040526040518082805190602001908083835b60208310614f035780518252601f199092019160209182019101614ee4565b6001836020036101000a038019825116818451168082178552505050505050905001915050604051809103902060001916600019168152602001908152602001600020549050614f65600161372b614f5d84611b37612972565b61239f6129d9565b600260008460405160200180807f72656c65617365426c6f636b0000000000000000000000000000000000000000815250600c0182600160a060020a0316600160a060020a0316606060020a0281526014019150506040516020818303038152906040526040518082805190602001908083835b60208310614ff85780518252601f199092019160209182019101614fd9565b51815160209384036101000a6000190180199092169116179052604080519290940182900390912086528501959095529290920160002093909355505060058211905061237d5780600101600260008460405160200180806000805160206154ad833981519152815250600b0182600160a060020a0316600160a060020a0316606060020a028152601401915050604051602081830303815290604052604051808280519060200190808383602083106117825780518252601f199092019160209182019101611763565b60006002600083604051602001808060008051602061540d833981519152815250600b0182600160a060020a0316600160a060020a0316606060020a028152601401915050604051602081830303815290604052604051808280519060200190808383602083106136695780518252601f19909201916020918201910161364a565b6000600260008360405160200180806000805160206154ad833981519152815250600b0182600160a060020a0316600160a060020a0316606060020a028152601401915050604051602081830303815290604052604051808280519060200190808383602083106136695780518252601f19909201916020918201910161364a565b80600a60008560405160200180806000805160206153ad833981519152815250600a0182600160a060020a0316600160a060020a0316606060020a0281526014019150506040516020818303038152906040526040518082805190602001908083835b602083106152495780518252601f19909201916020918201910161522a565b51815160209384036101000a6000190180199092169116179052604080519290940182900390912086528501959095529290920160002080549093508692508210905061529257fe5b9060005260206000200160006101000a815481600160a060020a030219169083600160a060020a03160217905550505050565b82805482825590600052602060002090810192821561531a579160200282015b8281111561531a5782518254600160a060020a031916600160a060020a039091161782556020909201916001909101906152e5565b5061532692915061534e565b5090565b815481835581811115610db757600083815260209020610db7918101908301615372565b610e6f91905b80821115615326578054600160a060020a0319168155600101615354565b610e6f91905b80821115615326576000815560010161537856006a61696c656456616c696461746f72730000000000000000000000000000000064656c656761746f727300000000000000000000000000000000000000000000626c6f636b436f756e746572000000000000000000000000000000000000000070656e64696e6756616c696461746f7273000000000000000000000000000000737472696b6552657365740000000000000000000000000000000000000000007374616b65416d6f756e74000000000000000000000000000000000000000000746f74616c5374616b65416d6f756e740000000000000000000000000000000063757272656e7456616c696461746f727300000000000000000000000000000064656c656761746564416d6f756e740000000000000000000000000000000000737472696b65436f756e74000000000000000000000000000000000000000000a165627a7a72305820bf7f2a84099d83b50f037de4787c03f954853be6ebb805821b9eb537dbb1bf8e0029",
  "linkReferences": {},
  "deployedLinkReferences": {}
}