{
  "_format": "hh-sol-artifact-1",
  "contractName": "Consensus",
  "sourceName": "contracts/Consensus.sol",
  "abi": [
    {
      "constant": true,
      "inputs": [],
      "name": "getLastSnapshotTakenAtBlock",
      "outputs": [
        {
          "name": "",
          "type": "uint256"
        }
      ],
      "payable": false,
      "stateMutability": "view",
      "type": "function"
    },
    {
      "constant": true,
      "inputs": [],
      "name": "jailedValidatorsLength",
      "outputs": [
        {
          "name": "",
          "type": "uint256"
        }
      ],
      "payable": false,
      "stateMutability": "view",
      "type": "function"
    },
    {
      "constant": true,
      "inputs": [
        {
          "name": "_p",
          "type": "uint256"
        }
      ],
      "name": "pendingValidatorsAtPosition",
      "outputs": [
        {
          "name": "",
          "type": "address"
        }
      ],
      "payable": false,
      "stateMutability": "view",
      "type": "function"
    },
    {
      "constant": true,
      "inputs": [
        {
          "name": "_snapshotId",
          "type": "uint256"
        }
      ],
      "name": "getSnapshotAddresses",
      "outputs": [
        {
          "name": "",
          "type": "address[]"
        }
      ],
      "payable": false,
      "stateMutability": "view",
      "type": "function"
    },
    {
      "constant": false,
      "inputs": [
        {
          "name": "_newAddress",
          "type": "address"
        }
      ],
      "name": "setProxyStorage",
      "outputs": [],
      "payable": false,
      "stateMutability": "nonpayable",
      "type": "function"
    },
    {
      "constant": true,
      "inputs": [],
      "name": "getMinValidatorFee",
      "outputs": [
        {
          "name": "",
          "type": "uint256"
        }
      ],
      "payable": false,
      "stateMutability": "pure",
      "type": "function"
    },
    {
      "constant": true,
      "inputs": [
        {
          "name": "_address",
          "type": "address"
        }
      ],
      "name": "isJailed",
      "outputs": [
        {
          "name": "",
          "type": "bool"
        }
      ],
      "payable": false,
      "stateMutability": "view",
      "type": "function"
    },
    {
      "constant": true,
      "inputs": [
        {
          "name": "_address",
          "type": "address"
        },
        {
          "name": "_validator",
          "type": "address"
        }
      ],
      "name": "delegatedAmount",
      "outputs": [
        {
          "name": "",
          "type": "uint256"
        }
      ],
      "payable": false,
      "stateMutability": "view",
      "type": "function"
    },
    {
      "constant": true,
      "inputs": [],
      "name": "SNAPSHOTS_PER_CYCLE",
      "outputs": [
        {
          "name": "",
          "type": "uint256"
        }
      ],
      "payable": false,
      "stateMutability": "view",
      "type": "function"
    },
    {
      "constant": true,
      "inputs": [],
      "name": "pendingValidatorsLength",
      "outputs": [
        {
          "name": "",
          "type": "uint256"
        }
      ],
      "payable": false,
      "stateMutability": "view",
      "type": "function"
    },
    {
      "constant": true,
      "inputs": [],
      "name": "newValidatorSetLength",
      "outputs": [
        {
          "name": "",
          "type": "uint256"
        }
      ],
      "payable": false,
      "stateMutability": "view",
      "type": "function"
    },
    {
      "constant": true,
      "inputs": [],
      "name": "DECIMALS",
      "outputs": [
        {
          "name": "",
          "type": "uint256"
        }
      ],
      "payable": false,
      "stateMutability": "view",
      "type": "function"
    },
    {
      "constant": false,
      "inputs": [
        {
          "name": "_amount",
          "type": "uint256"
        }
      ],
      "name": "withdraw",
      "outputs": [],
      "payable": false,
      "stateMutability": "nonpayable",
      "type": "function"
    },
    {
      "constant": true,
      "inputs": [],
      "name": "isInitialized",
      "outputs": [
        {
          "name": "",
          "type": "bool"
        }
      ],
      "payable": false,
      "stateMutability": "view",
      "type": "function"
    },
    {
      "constant": false,
      "inputs": [],
      "name": "stake",
      "outputs": [],
      "payable": true,
      "stateMutability": "payable",
      "type": "function"
    },
    {
      "constant": true,
      "inputs": [],
      "name": "currentValidatorsLength",
      "outputs": [
        {
          "name": "",
          "type": "uint256"
        }
      ],
      "payable": false,
      "stateMutability": "view",
      "type": "function"
    },
    {
      "constant": false,
      "inputs": [
        {
          "name": "_amount",
          "type": "uint256"
        }
      ],
      "name": "setValidatorFee",
      "outputs": [],
      "payable": false,
      "stateMutability": "nonpayable",
      "type": "function"
    },
    {
      "constant": true,
      "inputs": [],
      "name": "getMinStake",
      "outputs": [
        {
          "name": "",
          "type": "uint256"
        }
      ],
      "payable": false,
      "stateMutability": "pure",
      "type": "function"
    },
    {
      "constant": true,
      "inputs": [
        {
          "name": "_p",
          "type": "uint256"
        }
      ],
      "name": "currentValidatorsAtPosition",
      "outputs": [
        {
          "name": "",
          "type": "address"
        }
      ],
      "payable": false,
      "stateMutability": "view",
      "type": "function"
    },
    {
      "constant": false,
      "inputs": [
        {
          "name": "_validator",
          "type": "address"
        }
      ],
      "name": "delegate",
      "outputs": [],
      "payable": true,
      "stateMutability": "payable",
      "type": "function"
    },
    {
      "constant": true,
      "inputs": [],
      "name": "newValidatorSet",
      "outputs": [
        {
          "name": "",
          "type": "address[]"
        }
      ],
      "payable": false,
      "stateMutability": "view",
      "type": "function"
    },
    {
      "constant": true,
      "inputs": [],
      "name": "jailedValidators",
      "outputs": [
        {
          "name": "",
          "type": "address[]"
        }
      ],
      "payable": false,
      "stateMutability": "view",
      "type": "function"
    },
    {
      "constant": true,
      "inputs": [
        {
          "name": "_validator",
          "type": "address"
        },
        {
          "name": "_rewardAmount",
          "type": "uint256"
        }
      ],
      "name": "getDelegatorsForRewardDistribution",
      "outputs": [
        {
          "name": "",
          "type": "address[]"
        },
        {
          "name": "",
          "type": "uint256[]"
        }
      ],
      "payable": false,
      "stateMutability": "view",
      "type": "function"
    },
    {
      "constant": true,
      "inputs": [],
      "name": "STRIKE_RESET",
      "outputs": [
        {
          "name": "",
          "type": "uint256"
        }
      ],
      "payable": false,
      "stateMutability": "view",
      "type": "function"
    },
    {
      "constant": false,
      "inputs": [],
      "name": "maintenance",
      "outputs": [],
      "payable": false,
      "stateMutability": "nonpayable",
      "type": "function"
    },
    {
      "constant": false,
      "inputs": [],
      "name": "unJail",
      "outputs": [],
      "payable": false,
      "stateMutability": "nonpayable",
      "type": "function"
    },
    {
      "constant": true,
      "inputs": [],
      "name": "MAX_VALIDATORS",
      "outputs": [
        {
          "name": "",
          "type": "uint256"
        }
      ],
      "payable": false,
      "stateMutability": "view",
      "type": "function"
    },
    {
      "constant": true,
      "inputs": [],
      "name": "VALIDATOR_PRODUCTIVITY_BP",
      "outputs": [
        {
          "name": "",
          "type": "uint256"
        }
      ],
      "payable": false,
      "stateMutability": "view",
      "type": "function"
    },
    {
      "constant": false,
      "inputs": [],
      "name": "finalizeChange",
      "outputs": [],
      "payable": false,
      "stateMutability": "nonpayable",
      "type": "function"
    },
    {
      "constant": true,
      "inputs": [],
      "name": "getMaxValidators",
      "outputs": [
        {
          "name": "",
          "type": "uint256"
        }
      ],
      "payable": false,
      "stateMutability": "pure",
      "type": "function"
    },
    {
      "constant": true,
      "inputs": [
        {
          "name": "_validator",
          "type": "address"
        }
      ],
      "name": "getStrikes",
      "outputs": [
        {
          "name": "",
          "type": "uint256"
        }
      ],
      "payable": false,
      "stateMutability": "view",
      "type": "function"
    },
    {
      "constant": true,
      "inputs": [
        {
          "name": "_validator",
          "type": "address"
        }
      ],
      "name": "blockCounter",
      "outputs": [
        {
          "name": "",
          "type": "uint256"
        }
      ],
      "payable": false,
      "stateMutability": "view",
      "type": "function"
    },
    {
      "constant": true,
      "inputs": [],
      "name": "CYCLE_DURATION_BLOCKS",
      "outputs": [
        {
          "name": "",
          "type": "uint256"
        }
      ],
      "payable": false,
      "stateMutability": "view",
      "type": "function"
    },
    {
      "constant": false,
      "inputs": [
        {
          "name": "_validator",
          "type": "address"
        }
      ],
      "name": "cycle",
      "outputs": [],
      "payable": false,
      "stateMutability": "nonpayable",
      "type": "function"
    },
    {
      "constant": true,
      "inputs": [],
      "name": "MAX_STRIKE_COUNT",
      "outputs": [
        {
          "name": "",
          "type": "uint256"
        }
      ],
      "payable": false,
      "stateMutability": "view",
      "type": "function"
    },
    {
      "constant": true,
      "inputs": [],
      "name": "getSnapshotsPerCycle",
      "outputs": [
        {
          "name": "",
          "type": "uint256"
        }
      ],
      "payable": false,
      "stateMutability": "pure",
      "type": "function"
    },
    {
      "constant": true,
      "inputs": [],
      "name": "requiredSignatures",
      "outputs": [
        {
          "name": "",
          "type": "uint256"
        }
      ],
      "payable": false,
      "stateMutability": "view",
      "type": "function"
    },
    {
      "constant": true,
      "inputs": [
        {
          "name": "_validator",
          "type": "address"
        }
      ],
      "name": "delegators",
      "outputs": [
        {
          "name": "",
          "type": "address[]"
        }
      ],
      "payable": false,
      "stateMutability": "view",
      "type": "function"
    },
    {
      "constant": true,
      "inputs": [],
      "name": "isFinalized",
      "outputs": [
        {
          "name": "",
          "type": "bool"
        }
      ],
      "payable": false,
      "stateMutability": "view",
      "type": "function"
    },
    {
      "constant": true,
      "inputs": [
        {
          "name": "_p",
          "type": "uint256"
        }
      ],
      "name": "jailedValidatorsAtPosition",
      "outputs": [
        {
          "name": "",
          "type": "address"
        }
      ],
      "payable": false,
      "stateMutability": "view",
      "type": "function"
    },
    {
      "constant": true,
      "inputs": [],
      "name": "DEFAULT_VALIDATOR_FEE",
      "outputs": [
        {
          "name": "",
          "type": "uint256"
        }
      ],
      "payable": false,
      "stateMutability": "view",
      "type": "function"
    },
    {
      "constant": true,
      "inputs": [],
      "name": "getCurrentCycleStartBlock",
      "outputs": [
        {
          "name": "",
          "type": "uint256"
        }
      ],
      "payable": false,
      "stateMutability": "view",
      "type": "function"
    },
    {
      "constant": false,
      "inputs": [],
      "name": "emitInitiateChange",
      "outputs": [],
      "payable": false,
      "stateMutability": "nonpayable",
      "type": "function"
    },
    {
      "constant": true,
      "inputs": [],
      "name": "totalStakeAmount",
      "outputs": [
        {
          "name": "",
          "type": "uint256"
        }
      ],
      "payable": false,
      "stateMutability": "view",
      "type": "function"
    },
    {
      "constant": true,
      "inputs": [
        {
          "name": "_validator",
          "type": "address"
        }
      ],
      "name": "validatorFee",
      "outputs": [
        {
          "name": "",
          "type": "uint256"
        }
      ],
      "payable": false,
      "stateMutability": "view",
      "type": "function"
    },
    {
      "constant": true,
      "inputs": [
        {
          "name": "_validator",
          "type": "address"
        },
        {
          "name": "_address",
          "type": "address"
        }
      ],
      "name": "isDelegator",
      "outputs": [
        {
          "name": "",
          "type": "bool"
        }
      ],
      "payable": false,
      "stateMutability": "view",
      "type": "function"
    },
    {
      "constant": true,
      "inputs": [],
      "name": "currentValidators",
      "outputs": [
        {
          "name": "",
          "type": "address[]"
        }
      ],
      "payable": false,
      "stateMutability": "view",
      "type": "function"
    },
    {
      "constant": true,
      "inputs": [],
      "name": "getCycleDurationBlocks",
      "outputs": [
        {
          "name": "",
          "type": "uint256"
        }
      ],
      "payable": false,
      "stateMutability": "pure",
      "type": "function"
    },
    {
      "constant": true,
      "inputs": [],
      "name": "pendingValidators",
      "outputs": [
        {
          "name": "",
          "type": "address[]"
        }
      ],
      "payable": false,
      "stateMutability": "view",
      "type": "function"
    },
    {
      "constant": true,
      "inputs": [],
      "name": "getCurrentCycleEndBlock",
      "outputs": [
        {
          "name": "",
          "type": "uint256"
        }
      ],
      "payable": false,
      "stateMutability": "view",
      "type": "function"
    },
    {
      "constant": true,
      "inputs": [],
      "name": "getValidators",
      "outputs": [
        {
          "name": "",
          "type": "address[]"
        }
      ],
      "payable": false,
      "stateMutability": "view",
      "type": "function"
    },
    {
      "constant": true,
      "inputs": [
        {
          "name": "_address",
          "type": "address"
        }
      ],
      "name": "stakeAmount",
      "outputs": [
        {
          "name": "",
          "type": "uint256"
        }
      ],
      "payable": false,
      "stateMutability": "view",
      "type": "function"
    },
    {
      "constant": false,
      "inputs": [
        {
          "name": "_initialValidator",
          "type": "address"
        }
      ],
      "name": "initialize",
      "outputs": [],
      "payable": false,
      "stateMutability": "nonpayable",
      "type": "function"
    },
    {
      "constant": true,
      "inputs": [],
      "name": "MAX_STAKE",
      "outputs": [
        {
          "name": "",
          "type": "uint256"
        }
      ],
      "payable": false,
      "stateMutability": "view",
      "type": "function"
    },
    {
      "constant": true,
      "inputs": [],
      "name": "MIN_STAKE",
      "outputs": [
        {
          "name": "",
          "type": "uint256"
        }
      ],
      "payable": false,
      "stateMutability": "view",
      "type": "function"
    },
    {
      "constant": true,
      "inputs": [
        {
          "name": "_validator",
          "type": "address"
        }
      ],
      "name": "getStrikeReset",
      "outputs": [
        {
          "name": "",
          "type": "uint256"
        }
      ],
      "payable": false,
      "stateMutability": "view",
      "type": "function"
    },
    {
      "constant": true,
      "inputs": [
        {
          "name": "_validator",
          "type": "address"
        }
      ],
      "name": "delegatorsLength",
      "outputs": [
        {
          "name": "",
          "type": "uint256"
        }
      ],
      "payable": false,
      "stateMutability": "view",
      "type": "function"
    },
    {
      "constant": true,
      "inputs": [],
      "name": "getNextSnapshotId",
      "outputs": [
        {
          "name": "",
          "type": "uint256"
        }
      ],
      "payable": false,
      "stateMutability": "view",
      "type": "function"
    },
    {
      "constant": true,
      "inputs": [
        {
          "name": "_validator",
          "type": "address"
        },
        {
          "name": "_p",
          "type": "uint256"
        }
      ],
      "name": "delegatorsAtPosition",
      "outputs": [
        {
          "name": "",
          "type": "address"
        }
      ],
      "payable": false,
      "stateMutability": "view",
      "type": "function"
    },
    {
      "constant": true,
      "inputs": [],
      "name": "getProxyStorage",
      "outputs": [
        {
          "name": "",
          "type": "address"
        }
      ],
      "payable": false,
      "stateMutability": "view",
      "type": "function"
    },
    {
      "constant": true,
      "inputs": [
        {
          "name": "_validator",
          "type": "address"
        }
      ],
      "name": "getReleaseBlock",
      "outputs": [
        {
          "name": "",
          "type": "uint256"
        }
      ],
      "payable": false,
      "stateMutability": "view",
      "type": "function"
    },
    {
      "constant": true,
      "inputs": [],
      "name": "shouldEmitInitiateChange",
      "outputs": [
        {
          "name": "",
          "type": "bool"
        }
      ],
      "payable": false,
      "stateMutability": "view",
      "type": "function"
    },
    {
      "constant": false,
      "inputs": [
        {
          "name": "_validator",
          "type": "address"
        },
        {
          "name": "_amount",
          "type": "uint256"
        }
      ],
      "name": "withdraw",
      "outputs": [],
      "payable": false,
      "stateMutability": "nonpayable",
      "type": "function"
    },
    {
      "constant": true,
      "inputs": [
        {
          "name": "_address",
          "type": "address"
        }
      ],
      "name": "isValidator",
      "outputs": [
        {
          "name": "",
          "type": "bool"
        }
      ],
      "payable": false,
      "stateMutability": "view",
      "type": "function"
    },
    {
      "constant": true,
      "inputs": [
        {
          "name": "_address",
          "type": "address"
        }
      ],
      "name": "isPendingValidator",
      "outputs": [
        {
          "name": "",
          "type": "bool"
        }
      ],
      "payable": false,
      "stateMutability": "view",
      "type": "function"
    },
    {
      "constant": true,
      "inputs": [],
      "name": "getMaxStake",
      "outputs": [
        {
          "name": "",
          "type": "uint256"
        }
      ],
      "payable": false,
      "stateMutability": "pure",
      "type": "function"
    },
    {
      "payable": true,
      "stateMutability": "payable",
      "type": "fallback"
    },
    {
      "anonymous": false,
      "inputs": [
        {
          "indexed": false,
          "name": "newSet",
          "type": "address[]"
        }
      ],
      "name": "ChangeFinalized",
      "type": "event"
    },
    {
      "anonymous": false,
      "inputs": [],
      "name": "ShouldEmitInitiateChange",
      "type": "event"
    },
    {
      "anonymous": false,
      "inputs": [
        {
          "indexed": true,
          "name": "parentHash",
          "type": "bytes32"
        },
        {
          "indexed": false,
          "name": "newSet",
          "type": "address[]"
        }
      ],
      "name": "InitiateChange",
      "type": "event"
    }
  ],
  "bytecode": "0x608060405234801561001057600080fd5b50614f6b806100206000396000f3006080604052600436106102f25763ffffffff60e060020a6000350416630300fc3581146102ff57806308c90076146103265780630fe9d28e1461033b5780631043ca281461036f57806310855269146103d757806310f606e7146103f857806314bfb5271461040d57806321429e6014610442578063256f9193146104695780632a807f151461047e5780632bec36d2146104935780632e0f2625146104a85780632e1a7d4d146104bd578063392e53cd146104d55780633a4b66f1146104ea57806340c9cdeb146104f257806355460f811461050757806356a3b5fa1461051f57806357aeefc5146105345780635c19a95c1461054c5780635ccee1de14610560578063651d8c22146105755780636a28f12f1461058a5780636bdf1d5a146106475780636c376cc51461065c5780636eae5b1114610671578063714897df1461068657806372e81e321461069b57806375286211146106b057806376bd510f146106c55780637b1e52a5146106da5780637d8f7a61146106fb5780637e2bf1201461071c57806385cd8464146107315780638615b171146107525780638bbc1e6b146107675780638d0680431461077c5780638d23fc61146107915780638d4e4083146107b25780638da873f8146107c757806392b391f3146107df578063932781d6146107f457806393b4e25e1461080957806394409a561461081e5780639f77dc3014610833578063a0e1192914610854578063a2cde6091461087b578063a652492314610890578063a82f255b146108a5578063af295181146108ba578063b7ab4db5146108cf578063bf135267146108e4578063c4d66de814610905578063c98517c514610926578063cb1c2b5c1461093b578063d2166ce914610950578063ddb3f48714610971578063e9fbe9d414610992578063eb431b6a146109a7578063ec15a5e6146109cb578063ee19a7fc146109e0578063ef7b6d8914610a01578063f3fef3a314610a16578063facd743b14610a3a578063fb64aac114610a5b578063fe35505b14610a7c575b6102fd333433610a91565b005b34801561030b57600080fd5b50610314610b59565b60408051918252519081900360200190f35b34801561033257600080fd5b50610314610c0f565b34801561034757600080fd5b50610353600435610c71565b60408051600160a060020a039092168252519081900360200190f35b34801561037b57600080fd5b50610387600435610d38565b60408051602080825283518183015283519192839290830191858101910280838360005b838110156103c35781810151838201526020016103ab565b505050509050019250505060405180910390f35b3480156103e357600080fd5b506102fd600160a060020a0360043516610e73565b34801561040457600080fd5b50610314611192565b34801561041957600080fd5b5061042e600160a060020a036004351661119e565b604080519115158252519081900360200190f35b34801561044e57600080fd5b50610314600160a060020a03600435811690602435166111ef565b34801561047557600080fd5b506103146112b3565b34801561048a57600080fd5b506103146112b8565b34801561049f57600080fd5b5061031461131a565b3480156104b457600080fd5b5061031461138e565b3480156104c957600080fd5b506102fd60043561139a565b3480156104e157600080fd5b5061042e6113a8565b6102fd611460565b3480156104fe57600080fd5b5061031461146d565b34801561051357600080fd5b506102fd6004356114cf565b34801561052b57600080fd5b50610314611516565b34801561054057600080fd5b50610353600435611524565b6102fd600160a060020a0360043516611586565b34801561056c57600080fd5b50610387611591565b34801561058157600080fd5b5061038761169a565b34801561059657600080fd5b506105ae600160a060020a03600435166024356116fc565b604051808060200180602001838103835285818151815260200191508051906020019060200280838360005b838110156105f25781810151838201526020016105da565b50505050905001838103825284818151815260200191508051906020019060200280838360005b83811015610631578181015183820152602001610619565b5050505090500194505050505060405180910390f35b34801561065357600080fd5b506103146117fa565b34801561066857600080fd5b506102fd6117ff565b34801561067d57600080fd5b506102fd61182f565b34801561069257600080fd5b50610314611868565b3480156106a757600080fd5b5061031461186d565b3480156106bc57600080fd5b506102fd611873565b3480156106d157600080fd5b506103146119ec565b3480156106e657600080fd5b50610314600160a060020a03600435166119f1565b34801561070757600080fd5b50610314600160a060020a0360043516611ab5565b34801561072857600080fd5b50610314611b37565b34801561073d57600080fd5b506102fd600160a060020a0360043516611b3d565b34801561075e57600080fd5b50610314611e5d565b34801561077357600080fd5b50610314611e62565b34801561078857600080fd5b50610314611e67565b34801561079d57600080fd5b50610387600160a060020a0360043516611e8c565b3480156107be57600080fd5b5061042e611f0e565b3480156107d357600080fd5b50610353600435611f82565b3480156107eb57600080fd5b50610314611fe4565b34801561080057600080fd5b50610314611ff0565b34801561081557600080fd5b506102fd612064565b34801561082a57600080fd5b50610314612127565b34801561083f57600080fd5b50610314600160a060020a0360043516612189565b34801561086057600080fd5b5061042e600160a060020a036004358116906024351661221d565b34801561088757600080fd5b50610387612271565b34801561089c57600080fd5b506103146122d3565b3480156108b157600080fd5b506103876122d9565b3480156108c657600080fd5b5061031461233b565b3480156108db57600080fd5b506103876123af565b3480156108f057600080fd5b50610314600160a060020a03600435166123b9565b34801561091157600080fd5b506102fd600160a060020a036004351661243b565b34801561093257600080fd5b50610314612571565b34801561094757600080fd5b5061031461257f565b34801561095c57600080fd5b50610314600160a060020a036004351661258d565b34801561097d57600080fd5b50610314600160a060020a036004351661260f565b34801561099e57600080fd5b50610314612691565b3480156109b357600080fd5b50610353600160a060020a0360043516602435612705565b3480156109d757600080fd5b506103536127ed565b3480156109ec57600080fd5b50610314600160a060020a03600435166128ab565b348015610a0d57600080fd5b5061042e61293f565b348015610a2257600080fd5b506102fd600160a060020a03600435166024356129b3565b348015610a4657600080fd5b5061042e600160a060020a03600435166129be565b348015610a6757600080fd5b5061042e600160a060020a0360043516612a04565b348015610a8857600080fd5b50610314612a4a565b600160a060020a0383161515610aa657600080fd5b811515610ab257600080fd5b600160a060020a0381161515610ac757600080fd5b610ad2838284612a58565b610adc8183612c13565b610ae4612a4a565b610aed826123b9565b1115610af857600080fd5b610b00611516565b610b09826123b9565b10158015610b1d5750610b1b81612a04565b155b15610b3d57610b2b81612d5a565b610b3d81670214e8348c4f0000612e3d565b610b46816129be565b15610b5457610b5482612ed0565b505050565b60006002600060405160200180807f6c617374536e617073686f7454616b656e4174426c6f636b000000000000000081525060180190506040516020818303038152906040526040518082805190602001908083835b60208310610bce5780518252601f199092019160209182019101610baf565b51815160209384036101000a600019018019909216911617905260408051929094018290039091208652850195909552929092016000205493505050505b90565b6000600a60006040516020018080600080516020614e00833981519152815250601001905060405160208183030381529060405260405180828051906020019080838360208310610bce5780518252601f199092019160209182019101610baf565b6000600a60006040516020018080600080516020614e6083398151915281525060110190506040516020818303038152906040526040518082805190602001908083835b60208310610cd45780518252601f199092019160209182019101610cb5565b51815160209384036101000a60001901801990921691161790526040805192909401829003909120865285019590955292909201600020805490935085925082109050610d1d57fe5b600091825260209091200154600160a060020a031692915050565b6060600a60008360405160200180807f736e617073686f74000000000000000000000000000000000000000000000000815250600801828152602001807f61646472657373657300000000000000000000000000000000000000000000008152506009019150506040516020818303038152906040526040518082805190602001908083835b60208310610ddd5780518252601f199092019160209182019101610dbe565b51815160209384036101000a600019018019909216911617905260408051929094018290039091208652858101969096525092830160002080548451818702810187019095528085529394909392508401905082828015610e6757602002820191906000526020600020905b8154600160a060020a03168152600190910190602001808311610e49575b50505050509050919050565b6004600060405160200180807f6f776e657200000000000000000000000000000000000000000000000000000081525060050190506040516020818303038152906040526040518082805190602001908083835b60208310610ee65780518252601f199092019160209182019101610ec7565b51815160209384036101000a6000190180199092169116179052604080519290940182900390912086528501959095529290920160002054600160a060020a031633149250610f3791505057600080fd5b600160a060020a0381161515610f4c57600080fd5b6006600060405160200180807f77617350726f787953746f72616765536574000000000000000000000000000081525060120190506040516020818303038152906040526040518082805190602001908083835b60208310610fbf5780518252601f199092019160209182019101610fa0565b51815160209384036101000a600019018019909216911617905260408051929094018290039091208652850195909552929092016000205460ff1615925061100991505057600080fd5b806004600060405160200180807f70726f787953746f726167650000000000000000000000000000000000000000815250600c0190506040516020818303038152906040526040518082805190602001908083835b6020831061107d5780518252601f19909201916020918201910161105e565b51815160209384036101000a600019018019909216911617905260408051929094018290039091208652858101969096525092830160009081208054600160a060020a031916600160a060020a039790971696909617909555505080517f77617350726f787953746f7261676553657400000000000000000000000000008184015281516012818303018152603290910191829052805160019460069490939182918401908083835b602083106111455780518252601f199092019160209182019101611126565b51815160209384036101000a60001901801990921691161790526040805192909401829003909120865285019590955292909201600020805460ff19169415159490941790935550505050565b670214e8348c4f000090565b6000805b6111aa610c0f565b8110156111e4576111ba81611f82565b600160a060020a031683600160a060020a031614156111dc57600191506111e9565b6001016111a2565b600091505b50919050565b60408051600080516020614f00833981519152602080830191909152606060020a600160a060020a038087168202602f85015285160260438301528251603781840301815260579092019283905281516000936002938593909282918401908083835b602083106112715780518252601f199092019160209182019101611252565b51815160209384036101000a60001901801990921691161790526040805192909401829003909120865285019590955292909201600020549695505050505050565b600081565b6000600a60006040516020018080600080516020614e60833981519152815250601101905060405160208183030381529060405260405180828051906020019080838360208310610bce5780518252601f199092019160209182019101610baf565b6000600a600060405160200180807f6e657756616c696461746f725365740000000000000000000000000000000000815250600f01905060405160208183030381529060405260405180828051906020019080838360208310610bce5780518252601f199092019160209182019101610baf565b670de0b6b3a764000081565b6113a5338233612fd6565b50565b60006006600060405160200180807f6973496e697469616c697a656400000000000000000000000000000000000000815250600d0190506040516020818303038152906040526040518082805190602001908083835b6020831061141d5780518252601f1990920191602091820191016113fe565b51815160209384036101000a600019018019909216911617905260408051929094018290039091208652850195909552929092016000205460ff16949350505050565b61146b333433610a91565b565b6000600a60006040516020018080600080516020614ee0833981519152815250601101905060405160208183030381529060405260405180828051906020019080838360208310610bce5780518252601f199092019160209182019101610baf565b6114d8336129be565b15156114e357600080fd5b670de0b6b3a76400008111156114f857600080fd5b611500611192565b81101561150c57600080fd5b6113a53382612e3d565b69021e19e0c9bab240000090565b6000600a60006040516020018080600080516020614ee0833981519152815250601101905060405160208183030381529060405260405180828051906020019080838360208310610cd45780518252601f199092019160209182019101610cb5565b6113a5333483610a91565b6060600a600060405160200180807f6e657756616c696461746f725365740000000000000000000000000000000000815250600f0190506040516020818303038152906040526040518082805190602001908083835b602083106116065780518252601f1990920191602091820191016115e7565b51815160209384036101000a60001901801990921691161790526040805192909401829003909120865285810196909652509283016000208054845181870281018701909552808552939490939250840190508282801561169057602002820191906000526020600020905b8154600160a060020a03168152600190910190602001808311611672575b5050505050905090565b6060600a60006040516020018080600080516020614e008339815191528152506010019050604051602081830303815290604052604051808280519060200190808383602083106116065780518252601f1990920191602091820191016115e7565b606080606080600080600061171089611e8c565b9450845160405190808252806020026020018201604052801561173d578160200160208202803883390190505b50935061175961174b611516565b6117548b6123b9565b6130f0565b92505b84518210156117eb576117786117728a84612705565b8a6111ef565b90506117c8670de0b6b3a76400006117b06117928c612189565b670de0b6b3a7640000036117bc876117b08e8863ffffffff61310916565b9063ffffffff61313716565b9063ffffffff61310916565b84838151811015156117d657fe5b6020908102909101015260019091019061175c565b50929791965090945050505050565b603281565b611808336129be565b151561181357600080fd5b61181c3361119e565b1561182657600080fd5b61146b3361315a565b6118383361119e565b151561184357600080fd5b61184b61233b565b611854336128ab565b111561185f57600080fd5b61146b3361316c565b606481565b610bb881565b6004600060405160200180807f53595354454d5f41444452455353000000000000000000000000000000000000815250600e0190506040516020818303038152906040526040518082805190602001908083835b602083106118e65780518252601f1990920191602091820191016118c7565b51815160209384036101000a6000190180199092169116179052604080519290940182900390912086528501959095529290920160002054600160a060020a03163314925061193791505057600080fd5b61193f611f0e565b1561194957600080fd5b600061195361131a565b11156119e257611969611964611591565b6131a8565b7f8564cd629b15f47dc310d45bcbfc9bcf5420b0d51bf0659a16c67f91d2763253611992612271565b60408051602080825283518183015283519192839290830191858101910280838360005b838110156119ce5781810151838201526020016119b6565b505050509050019250505060405180910390a15b61146b60016132fb565b606490565b600060026000836040516020018080600080516020614f20833981519152815250600b0182600160a060020a0316600160a060020a0316606060020a0281526014019150506040516020818303038152906040526040518082805190602001908083835b60208310611a745780518252601f199092019160209182019101611a55565b51815160209384036101000a600019018019909216911617905260408051929094018290039091208652850195909552929092016000205495945050505050565b600060026000836040516020018080600080516020614e40833981519152815250600c0182600160a060020a0316600160a060020a0316606060020a02815260140191505060405160208183030381529060405260405180828051906020019080838360208310611a745780518252601f199092019160209182019101611a55565b61438081565b6060611b476127ed565b600160a060020a031663f89d40866040518163ffffffff1660e060020a028152600401602060405180830381600087803b158015611b8457600080fd5b505af1158015611b98573d6000803e3d6000fd5b505050506040513d6020811015611bae57600080fd5b5051600160a060020a03163314611bc457600080fd5b611bcd8261336e565b611bd561349e565b15611e5957611be26127ed565b600160a060020a0316631986d3766040518163ffffffff1660e060020a028152600401602060405180830381600087803b158015611c1f57600080fd5b505af1158015611c33573d6000803e3d6000fd5b505050506040513d6020811015611c4957600080fd5b5051600160a060020a031663bbac62c8611c61612271565b6040518263ffffffff1660e060020a0281526004018080602001828103825283818151815260200191508051906020019060200280838360005b83811015611cb3578181015183820152602001611c9b565b5050505090500192505050600060405180830381600087803b158015611cd857600080fd5b505af1158015611cec573d6000803e3d6000fd5b50505050611cf86134b0565b611d08611d03612271565b613621565b611d106122d9565b9050600081511115611d2557611d2581613706565b6000611d2f61131a565b1115611d7357611d3f60006132fb565b611d4960016137c8565b6040517fad8a61077dff62d25ea1bf7cf1af88e1b48075c3d497d494ac9b129b73b0d37c90600090a15b611d7b6127ed565b600160a060020a031663f89d40866040518163ffffffff1660e060020a028152600401602060405180830381600087803b158015611db857600080fd5b505af1158015611dcc573d6000803e3d6000fd5b505050506040513d6020811015611de257600080fd5b5051604080517fb1f0c8e10000000000000000000000000000000000000000000000000000000081529051600160a060020a039092169163b1f0c8e19160048082019260009290919082900301818387803b158015611e4057600080fd5b505af1158015611e54573d6000803e3d6000fd5b505050505b5050565b600581565b600090565b6000611e876001611e7b60026117b061146d565b9063ffffffff61383b16565b905090565b6060600a6000836040516020018080600080516020614e20833981519152815250600a0182600160a060020a0316600160a060020a0316606060020a02815260140191505060405160208183030381529060405260405180828051906020019080838360208310610ddd5780518252601f199092019160209182019101610dbe565b60006006600060405160200180807f697346696e616c697a6564000000000000000000000000000000000000000000815250600b0190506040516020818303038152906040526040518082805190602001908083836020831061141d5780518252601f1990920191602091820191016113fe565b6000600a60006040516020018080600080516020614e00833981519152815250601001905060405160208183030381529060405260405180828051906020019080838360208310610cd45780518252601f199092019160209182019101610cb5565b670214e8348c4f000081565b60006002600060405160200180807f63757272656e744379636c655374617274426c6f636b00000000000000000000815250601601905060405160208183030381529060405260405180828051906020019080838360208310610bce5780518252601f199092019160209182019101610baf565b61206d336129be565b151561207857600080fd5b61208061293f565b151561208b57600080fd5b600061209561131a565b1161209f57600080fd5b6000194301407f55252fa6eee4741b4e24a74a70e9c11fd2c2281df8d6ea13126ff845f7825c896120ce611591565b60408051602080825283518183015283519192839290830191858101910280838360005b8381101561210a5781810151838201526020016120f2565b505050509050019250505060405180910390a261146b60006137c8565b6000600260006040516020018080600080516020614ec0833981519152815250601001905060405160208183030381529060405260405180828051906020019080838360208310610bce5780518252601f199092019160209182019101610baf565b6000600260008360405160200180807f76616c696461746f724665650000000000000000000000000000000000000000815250600c0182600160a060020a0316600160a060020a0316606060020a02815260140191505060405160208183030381529060405260405180828051906020019080838360208310611a745780518252601f199092019160209182019101611a55565b6000805b61222a8461260f565b8110156122655761223b8482612705565b600160a060020a031683600160a060020a0316141561225d576001915061226a565b600101612221565b600091505b5092915050565b6060600a60006040516020018080600080516020614ee08339815191528152506011019050604051602081830303815290604052604051808280519060200190808383602083106116065780518252601f1990920191602091820191016115e7565b61438090565b6060600a60006040516020018080600080516020614e608339815191528152506011019050604051602081830303815290604052604051808280519060200190808383602083106116065780518252601f1990920191602091820191016115e7565b60006002600060405160200180807f63757272656e744379636c65456e64426c6f636b000000000000000000000000815250601401905060405160208183030381529060405260405180828051906020019080838360208310610bce5780518252601f199092019160209182019101610baf565b6060611e87612271565b600060026000836040516020018080600080516020614ea0833981519152815250600b0182600160a060020a0316600160a060020a0316606060020a02815260140191505060405160208183030381529060405260405180828051906020019080838360208310611a745780518252601f199092019160209182019101611a55565b6004600060405160200180807f6f776e657200000000000000000000000000000000000000000000000000000081525060050190506040516020818303038152906040526040518082805190602001908083835b602083106124ae5780518252601f19909201916020918201910161248f565b51815160209384036101000a6000190180199092169116179052604080519290940182900390912086528501959095529290920160002054600160a060020a0316331492506124ff91505057600080fd5b6125076113a8565b1561251157600080fd5b61252e73fffffffffffffffffffffffffffffffffffffffe61384d565b6125366134b0565b600160a060020a03811615156125545761254f3361391d565b61255d565b61255d8161391d565b61256760016132fb565b6113a5600161397d565b69043c33c193756480000081565b69021e19e0c9bab240000081565b600060026000836040516020018080600080516020614e80833981519152815250600b0182600160a060020a0316600160a060020a0316606060020a02815260140191505060405160208183030381529060405260405180828051906020019080838360208310611a745780518252601f199092019160209182019101611a55565b6000600a6000836040516020018080600080516020614e20833981519152815250600a0182600160a060020a0316600160a060020a0316606060020a02815260140191505060405160208183030381529060405260405180828051906020019080838360208310611a745780518252601f199092019160209182019101611a55565b60006002600060405160200180807f6e657874536e617073686f744964000000000000000000000000000000000000815250600e01905060405160208183030381529060405260405180828051906020019080838360208310610bce5780518252601f199092019160209182019101610baf565b6000600a6000846040516020018080600080516020614e20833981519152815250600a0182600160a060020a0316600160a060020a0316606060020a0281526014019150506040516020818303038152906040526040518082805190602001908083835b602083106127885780518252601f199092019160209182019101612769565b51815160209384036101000a600019018019909216911617905260408051929094018290039091208652850195909552929092016000208054909350859250821090506127d157fe5b600091825260209091200154600160a060020a03169392505050565b60006004600060405160200180807f70726f787953746f726167650000000000000000000000000000000000000000815250600c0190506040516020818303038152906040526040518082805190602001908083835b602083106128625780518252601f199092019160209182019101612843565b51815160209384036101000a6000190180199092169116179052604080519290940182900390912086528501959095529290920160002054600160a060020a0316949350505050565b6000600260008360405160200180807f72656c65617365426c6f636b0000000000000000000000000000000000000000815250600c0182600160a060020a0316600160a060020a0316606060020a02815260140191505060405160208183030381529060405260405180828051906020019080838360208310611a745780518252601f199092019160209182019101611a55565b60006006600060405160200180807f73686f756c64456d6974496e6974696174654368616e6765000000000000000081525060180190506040516020818303038152906040526040518082805190602001908083836020831061141d5780518252601f1990920191602091820191016113fe565b611e59338284612fd6565b6000805b6129ca61146d565b8110156111e4576129da81611524565b600160a060020a031683600160a060020a031614156129fc57600191506111e9565b6001016129c2565b6000805b612a106112b8565b8110156111e457612a2081610c71565b600160a060020a031683600160a060020a03161415612a4257600191506111e9565b600101612a08565b69043c33c193756480000090565b60408051600080516020614f00833981519152602080830191909152606060020a600160a060020a038088168202602f8501528616026043830152825160378184030181526057909201928390528151612b2293859360029360009391929182918401908083835b60208310612adf5780518252601f199092019160209182019101612ac0565b51815160209384036101000a60001901801990921691161790526040805192909401829003909120865285019590955292909201600020549392505061383b9050565b60408051600080516020614f00833981519152602080830191909152606060020a600160a060020a038089168202602f850152871602604383015282516037818403018152605790920192839052815160029360009392909182918401908083835b60208310612ba35780518252601f199092019160209182019101612b84565b51815160209384036101000a6000190180199092169116179052604080519290940182900390912086528501959095529290920160002093909355505050600160a060020a0382811690841614801590612c045750612c02828461221d565b155b15610b5457610b5483836139f0565b612c978160026000856040516020018080600080516020614ea0833981519152815250600b0182600160a060020a0316600160a060020a0316606060020a02815260140191505060405160208183030381529060405260405180828051906020019080838360208310612adf5780518252601f199092019160209182019101612ac0565b60026000846040516020018080600080516020614ea0833981519152815250600b0182600160a060020a0316600160a060020a0316606060020a0281526014019150506040516020818303038152906040526040518082805190602001908083835b60208310612d185780518252601f199092019160209182019101612cf9565b51815160209384036101000a60001901801990921691161790526040805192909401829003909120865285019590955292909201600020939093555050505050565b612d638161119e565b15612d6d57600080fd5b600a60006040516020018080600080516020614e6083398151915281525060110190506040516020818303038152906040526040518082805190602001908083835b60208310612dce5780518252601f199092019160209182019101612daf565b51815160209384036101000a600019018019909216911617905260408051929094018290039091208652858101969096525092909201600090812080546001810182559082529390209092018054600160a060020a031916600160a060020a0394909416939093179092555050565b80600260008460405160200180807f76616c696461746f724665650000000000000000000000000000000000000000815250600c0182600160a060020a0316600160a060020a0316606060020a02815260140191505060405160208183030381529060405260405180828051906020019080838360208310612d185780518252601f199092019160209182019101612cf9565b612f3481600260006040516020018080600080516020614ec0833981519152815250601001905060405160208183030381529060405260405180828051906020019080838360208310612adf5780518252601f199092019160209182019101612ac0565b600260006040516020018080600080516020614ec083398151915281525060100190506040516020818303038152906040526040518082805190602001908083835b60208310612f955780518252601f199092019160209182019101612f76565b51815160209384036101000a600019018019909216911617905260408051929094018290039091208652850195909552929092016000209390935550505050565b6000600160a060020a0382161515612fed57600080fd5b60008311612ffa57600080fd5b613003826123b9565b83111561300f57600080fd5b61301984836111ef565b83111561302557600080fd5b61302e826129be565b9050613038611516565b61305184613045856123b9565b9063ffffffff613ae116565b10801561305b5750805b1561306e5761306982613af8565b6130ea565b613079848385613cf6565b6130838284613f48565b80156130925761309283613fcc565b61309a611516565b6130a3836123b9565b10156130b2576130b282613af8565b604051600160a060020a0385169084156108fc029085906000818181858888f193505050501580156130e8573d6000803e3d6000fd5b505b50505050565b6000818310156131005781613102565b825b9392505050565b60008083151561311c576000915061226a565b5082820282848281151561312c57fe5b041461310257600080fd5b60008080831161314657600080fd5b828481151561315157fe5b04949350505050565b61316381613af8565b6113a581614030565b61317581614090565b61317d611516565b613186826123b9565b1015801561319a575061319881612a04565b155b156113a5576113a581612d5a565b60008080805b8451831015613242576131d785848151811015156131c857fe5b906020019060200201516123b9565b915081840193506131fe85848151811015156131ef57fe5b90602001906020020151612189565b9050613208611192565b81101561323757613237858481518110151561322057fe5b90602001906020020151613232611192565b612e3d565b6001909201916131ae565b61324b84614236565b84600a60006040516020018080600080516020614ee083398151915281525060110190506040516020818303038152906040526040518082805190602001908083835b602083106132ad5780518252601f19909201916020918201910161328e565b51815160001960209485036101000a01908116901991909116179052604080519490920184900390932086528583019690965250929093016000208451611e54959194509201919050614d38565b806006600060405160200180807f697346696e616c697a6564000000000000000000000000000000000000000000815250600b019050604051602081830303815290604052604051808280519060200190808383602083106111455780518252601f199092019160209182019101611126565b60026000826040516020018080600080516020614e40833981519152815250600c0182600160a060020a0316600160a060020a0316606060020a0281526014019150506040516020818303038152906040526040518082805190602001908083835b602083106133ef5780518252601f1990920191602091820191016133d0565b51815160209384036101000a60001901801990921691161790526040805192909401829003909120865285810196909652509283016000908120548451600080516020614e4083398151915281880152600160a060020a038816606060020a02602c8201528551808203880181529086019586905280516001909201966002969395509093508291848201918190849084908310612f955780518252601f199092019160209182019101612f76565b60006134a861233b565b431015905090565b436002600060405160200180807f63757272656e744379636c655374617274426c6f636b0000000000000000000081525060160190506040516020818303038152906040526040518082805190602001908083835b602083106135245780518252601f199092019160209182019101613505565b51815160209384036101000a60001901801990921691161790526040805192909401829003909120865285019590955292909201600020939093555061356c91506122d39050565b43016002600060405160200180807f63757272656e744379636c65456e64426c6f636b00000000000000000000000081525060140190506040516020818303038152906040526040518082805190602001908083835b602083106135e15780518252601f1990920191602091820191016135c2565b51815160209384036101000a6000190180199092169116179052604080519290940182900390912086528501959095529290920160002093909355505050565b60008061363d6127106117b085516117b0610bb86117bc6122d3565b9150600090505b8251811015610b54578161366e848381518110151561365f57fe5b90602001906020020151611ab5565b101561369957613694838281518110151561368557fe5b90602001906020020151614297565b6136de565b6136b983828151811015156136aa57fe5b906020019060200201516119f1565b156136de576136de83828151811015156136cf57fe5b906020019060200201516142bb565b6136fe83828151811015156136ef57fe5b906020019060200201516144fa565b600101613644565b80600a600060405160200180807f6e657756616c696461746f725365740000000000000000000000000000000000815250600f0190506040516020818303038152906040526040518082805190602001908083835b6020831061377a5780518252601f19909201916020918201910161375b565b51815160001960209485036101000a01908116901991909116179052604080519490920184900390932086528583019690965250929093016000208451611e59959194509201919050614d38565b806006600060405160200180807f73686f756c64456d6974496e6974696174654368616e676500000000000000008152506018019050604051602081830303815290604052604051808280519060200190808383602083106111455780518252601f199092019160209182019101611126565b60008282018381101561310257600080fd5b806004600060405160200180807f53595354454d5f41444452455353000000000000000000000000000000000000815250600e0190506040516020818303038152906040526040518082805190602001908083835b602083106138c15780518252601f1990920191602091820191016138a2565b51815160209384036101000a600019018019909216911617905260408051929094018290039091208652850195909552929092016000208054600160a060020a031916600160a060020a03959095169490941790935550505050565b600a60006040516020018080600080516020614ee0833981519152815250601101905060405160208183030381529060405260405180828051906020019080838360208310612dce5780518252601f199092019160209182019101612daf565b806006600060405160200180807f6973496e697469616c697a656400000000000000000000000000000000000000815250600d019050604051602081830303815290604052604051808280519060200190808383602083106111455780518252601f199092019160209182019101611126565b600a6000826040516020018080600080516020614e20833981519152815250600a0182600160a060020a0316600160a060020a0316606060020a0281526014019150506040516020818303038152906040526040518082805190602001908083835b60208310613a715780518252601f199092019160209182019101613a52565b51815160209384036101000a600019018019909216911617905260408051929094018290039091208652858101969096525092909201600090812080546001810182559082529390209092018054600160a060020a031916600160a060020a039590951694909417909355505050565b60008083831115613af157600080fd5b5050900390565b6000808080805b613b076112b8565b831015613b4757613b1783610c71565b600160a060020a031686600160a060020a03161415613b3c5782935060019450613b47565b600190920191613aff565b8415611e54576001613b576112b8565b039150613b6382610c71565b9050600160a060020a03811615613b7e57613b7e848261457c565b600a60006040516020018080600080516020614e6083398151915281525060110190506040516020818303038152906040526040518082805190602001908083835b60208310613bdf5780518252601f199092019160209182019101613bc0565b51815160209384036101000a60001901801990921691161790526040805192909401829003909120865285019590955292909201600020805490935085925082109050613c2857fe5b600091825260208083209091018054600160a060020a031916905560408051600080516020614e6083398151915281840152815180820360110181526031909101918290528051600a94939192918291908401908083835b60208310613c9f5780518252601f199092019160209182019101613c80565b51815160001960209485036101000a81019182169119929092161790915260408051959093018590039094208752860196909652509290930160002080549350613ced929091508301614d9d565b50505050505050565b60408051600080516020614f00833981519152602080830191909152606060020a600160a060020a038088168202602f8501528616026043830152825160378184030181526057909201928390528151613dc093859360029360009391929182918401908083835b60208310613d7d5780518252601f199092019160209182019101613d5e565b51815160209384036101000a600019018019909216911617905260408051929094018290039091208652850195909552929092016000205493925050613ae19050565b60408051600080516020614f00833981519152602080830191909152606060020a600160a060020a038089168202602f850152871602604383015282516037818403018152605790920192839052815160029360009392909182918401908083835b60208310613e415780518252601f199092019160209182019101613e22565b51815160001960209485036101000a0190811690199190911617905260408051949092018490039093208652858301969096525092840160009081209590955550508151600080516020614f0083398151915281830152606060020a600160a060020a038089168202602f84015287160260438201528251603781830301815260579091019283905280516002949391928291908401908083835b60208310613efb5780518252601f199092019160209182019101613edc565b51815160209384036101000a600019018019909216911617905260408051929094018290039091208652850195909552929092016000205415159250610b5491505057610b548383614659565b612c978160026000856040516020018080600080516020614ea0833981519152815250600b0182600160a060020a0316600160a060020a0316606060020a02815260140191505060405160208183030381529060405260405180828051906020019080838360208310613d7d5780518252601f199092019160209182019101613d5e565b612f3481600260006040516020018080600080516020614ec0833981519152815250601001905060405160208183030381529060405260405180828051906020019080838360208310613d7d5780518252601f199092019160209182019101613d5e565b600a60006040516020018080600080516020614e00833981519152815250601001905060405160208183030381529060405260405180828051906020019080838360208310612dce5780518252601f199092019160209182019101612daf565b6000808080805b61409f610c0f565b8310156140df576140af83611f82565b600160a060020a031686600160a060020a031614156140d457829350600194506140df565b600190920191614097565b8415611e545760016140ef610c0f565b0391506140fb82611f82565b9050600160a060020a03811615614116576141168482614892565b600a60006040516020018080600080516020614e0083398151915281525060100190506040516020818303038152906040526040518082805190602001908083835b602083106141775780518252601f199092019160209182019101614158565b51815160209384036101000a600019018019909216911617905260408051929094018290039091208652850195909552929092016000208054909350859250821090506141c057fe5b600091825260208083209091018054600160a060020a031916905560408051600080516020614e0083398151915281840152815180820360100181526030909101918290528051600a949391929182919084019080838360208310613c9f5780518252601f199092019160209182019101613c80565b80600260006040516020018080600080516020614ec0833981519152815250601001905060405160208183030381529060405260405180828051906020019080838360208310612f955780518252601f199092019160209182019101612f76565b6142a081613af8565b6142a981614030565b6142b2816148f3565b6113a581614b36565b60026000826040516020018080600080516020614e80833981519152815250600b0182600160a060020a0316600160a060020a0316606060020a0281526014019150506040516020818303038152906040526040518082805190602001908083835b6020831061433c5780518252601f19909201916020918201910161431d565b51815160209384036101000a60001901801990921691161790526040805192909401829003909120865285810196909652509283016000908120548451600080516020614e8083398151915281880152600160a060020a038816606060020a02602b8201528551808203601f018152603f9091019586905280516001909201966002969395509093508291908401908083835b602083106143ee5780518252601f1990920191602091820191016143cf565b51815160209384036101000a600019018019909216911617905260408051929094018290039091208652858101969096525092830160009081209590955550508051600080516020614e8083398151915281840152600160a060020a038516606060020a02602b8201528151808203601f018152603f90910191829052805160329460029490939182918401908083835b6020831061449e5780518252601f19909201916020918201910161447f565b6001836020036101000a0380198251168184511680821785525050505050509050019150506040518091039020600019166000191681526020019081526020016000205411156113a5576144f181614b36565b6113a581614bb8565b600060026000836040516020018080600080516020614e40833981519152815250600c0182600160a060020a0316600160a060020a0316606060020a02815260140191505060405160208183030381529060405260405180828051906020019080838360208310612f955780518252601f199092019160209182019101612f76565b80600a60006040516020018080600080516020614e6083398151915281525060110190506040516020818303038152906040526040518082805190602001908083835b602083106145de5780518252601f1990920191602091820191016145bf565b51815160209384036101000a6000190180199092169116179052604080519290940182900390912086528501959095529290920160002080549093508692508210905061462757fe5b9060005260206000200160006101000a815481600160a060020a030219169083600160a060020a031602179055505050565b6000808080805b6146698661260f565b8310156146aa5761467a8684612705565b600160a060020a031687600160a060020a0316141561469f57829350600194506146aa565b600190920191614660565b8415613ced5760016146bb8761260f565b0391506146c88683612705565b9050600160a060020a038116156146e4576146e4868583614c3a565b600a6000876040516020018080600080516020614e20833981519152815250600a0182600160a060020a0316600160a060020a0316606060020a0281526014019150506040516020818303038152906040526040518082805190602001908083835b602083106147655780518252601f199092019160209182019101614746565b51815160209384036101000a600019018019909216911617905260408051929094018290039091208652850195909552929092016000208054909350859250821090506147ae57fe5b600091825260208083209091018054600160a060020a031916905560408051600080516020614e2083398151915281840152606060020a600160a060020a038b1602602a8201528151601e818303018152603e909101918290528051600a94939192918291908401908083835b6020831061483a5780518252601f19909201916020918201910161481b565b51815160001960209485036101000a81019182169119929092161790915260408051959093018590039094208752860196909652509290930160002080549350614888929091508301614d9d565b5050505050505050565b80600a60006040516020018080600080516020614e008339815191528152506010019050604051602081830303815290604052604051808280519060200190808383602083106145de5780518252601f1990920191602091820191016145bf565b600060026000836040516020018080600080516020614f20833981519152815250600b0182600160a060020a0316600160a060020a0316606060020a0281526014019150506040516020818303038152906040526040518082805190602001908083835b602083106149765780518252601f199092019160209182019101614957565b6001836020036101000a0380198251168184511680821785525050505050509050019150506040518091039020600019166000191681526020019081526020016000205490506149d860016130456149d0846117bc6122d3565b611e7b61233b565b600260008460405160200180807f72656c65617365426c6f636b0000000000000000000000000000000000000000815250600c0182600160a060020a0316600160a060020a0316606060020a0281526014019150506040516020818303038152906040526040518082805190602001908083835b60208310614a6b5780518252601f199092019160209182019101614a4c565b51815160209384036101000a60001901801990921691161790526040805192909401829003909120865285019590955292909201600020939093555050600582119050611e59578060010160026000846040516020018080600080516020614f20833981519152815250600b0182600160a060020a0316600160a060020a0316606060020a02815260140191505060405160208183030381529060405260405180828051906020019080838360208310612d185780518252601f199092019160209182019101612cf9565b600060026000836040516020018080600080516020614e80833981519152815250600b0182600160a060020a0316600160a060020a0316606060020a02815260140191505060405160208183030381529060405260405180828051906020019080838360208310612f955780518252601f199092019160209182019101612f76565b600060026000836040516020018080600080516020614f20833981519152815250600b0182600160a060020a0316600160a060020a0316606060020a02815260140191505060405160208183030381529060405260405180828051906020019080838360208310612f955780518252601f199092019160209182019101612f76565b80600a6000856040516020018080600080516020614e20833981519152815250600a0182600160a060020a0316600160a060020a0316606060020a0281526014019150506040516020818303038152906040526040518082805190602001908083835b60208310614cbc5780518252601f199092019160209182019101614c9d565b51815160209384036101000a60001901801990921691161790526040805192909401829003909120865285019590955292909201600020805490935086925082109050614d0557fe5b9060005260206000200160006101000a815481600160a060020a030219169083600160a060020a03160217905550505050565b828054828255906000526020600020908101928215614d8d579160200282015b82811115614d8d5782518254600160a060020a031916600160a060020a03909116178255602090920191600190910190614d58565b50614d99929150614dc1565b5090565b815481835581811115610b5457600083815260209020610b54918101908301614de5565b610c0c91905b80821115614d99578054600160a060020a0319168155600101614dc7565b610c0c91905b80821115614d995760008155600101614deb56006a61696c656456616c696461746f72730000000000000000000000000000000064656c656761746f727300000000000000000000000000000000000000000000626c6f636b436f756e746572000000000000000000000000000000000000000070656e64696e6756616c696461746f7273000000000000000000000000000000737472696b6552657365740000000000000000000000000000000000000000007374616b65416d6f756e74000000000000000000000000000000000000000000746f74616c5374616b65416d6f756e740000000000000000000000000000000063757272656e7456616c696461746f727300000000000000000000000000000064656c656761746564416d6f756e740000000000000000000000000000000000737472696b65436f756e74000000000000000000000000000000000000000000a165627a7a72305820177f38b4659c11eee9f5a3b9c02da5f8991fe70828523edfc7e2376d3c76e78c0029",
  "linkReferences": {},
  "deployedLinkReferences": {}
}